{
  "address": "0x270f2D88F25866b10766CE2e503b2bA4e5939cf3",
  "abi": [
    {
      "inputs": [],
      "stateMutability": "nonpayable",
      "type": "constructor"
    },
    {
      "inputs": [
        {
          "internalType": "address",
          "name": "target",
          "type": "address"
        },
        {
          "internalType": "bool",
          "name": "success",
          "type": "bool"
        },
        {
          "internalType": "bytes",
          "name": "data",
          "type": "bytes"
        }
      ],
      "name": "ERC20CallFailed",
      "type": "error"
    },
    {
      "inputs": [],
      "name": "IllegalArgument",
      "type": "error"
    },
    {
      "inputs": [],
      "name": "IllegalState",
      "type": "error"
    },
    {
      "inputs": [],
      "name": "Unauthorized",
      "type": "error"
    },
    {
      "anonymous": false,
      "inputs": [],
      "name": "RefreshStrategies",
      "type": "event"
    },
    {
      "anonymous": false,
      "inputs": [
        {
          "indexed": false,
          "internalType": "address",
          "name": "underlyingToken",
          "type": "address"
        },
        {
          "indexed": false,
          "internalType": "address",
          "name": "transmuter",
          "type": "address"
        }
      ],
      "name": "RegisterAsset",
      "type": "event"
    },
    {
      "anonymous": false,
      "inputs": [
        {
          "indexed": true,
          "internalType": "bytes32",
          "name": "role",
          "type": "bytes32"
        },
        {
          "indexed": true,
          "internalType": "bytes32",
          "name": "previousAdminRole",
          "type": "bytes32"
        },
        {
          "indexed": true,
          "internalType": "bytes32",
          "name": "newAdminRole",
          "type": "bytes32"
        }
      ],
      "name": "RoleAdminChanged",
      "type": "event"
    },
    {
      "anonymous": false,
      "inputs": [
        {
          "indexed": true,
          "internalType": "bytes32",
          "name": "role",
          "type": "bytes32"
        },
        {
          "indexed": true,
          "internalType": "address",
          "name": "account",
          "type": "address"
        },
        {
          "indexed": true,
          "internalType": "address",
          "name": "sender",
          "type": "address"
        }
      ],
      "name": "RoleGranted",
      "type": "event"
    },
    {
      "anonymous": false,
      "inputs": [
        {
          "indexed": true,
          "internalType": "bytes32",
          "name": "role",
          "type": "bytes32"
        },
        {
          "indexed": true,
          "internalType": "address",
          "name": "account",
          "type": "address"
        },
        {
          "indexed": true,
          "internalType": "address",
          "name": "sender",
          "type": "address"
        }
      ],
      "name": "RoleRevoked",
      "type": "event"
    },
    {
      "anonymous": false,
      "inputs": [
        {
          "indexed": false,
          "internalType": "address",
          "name": "alchemist",
          "type": "address"
        }
      ],
      "name": "SetAlchemist",
      "type": "event"
    },
    {
      "anonymous": false,
      "inputs": [
        {
          "indexed": false,
          "internalType": "address",
          "name": "underlyingToken",
          "type": "address"
        },
        {
          "indexed": false,
          "internalType": "address",
          "name": "amo",
          "type": "address"
        }
      ],
      "name": "SetAmo",
      "type": "event"
    },
    {
      "anonymous": false,
      "inputs": [
        {
          "indexed": false,
          "internalType": "address",
          "name": "underlyingToken",
          "type": "address"
        },
        {
          "indexed": false,
          "internalType": "bool",
          "name": "divert",
          "type": "bool"
        }
      ],
      "name": "SetDivertToAmo",
      "type": "event"
    },
    {
      "anonymous": false,
      "inputs": [
        {
          "indexed": false,
          "internalType": "address",
          "name": "underlyingToken",
          "type": "address"
        },
        {
          "indexed": false,
          "internalType": "uint256",
          "name": "flowRate",
          "type": "uint256"
        }
      ],
      "name": "SetFlowRate",
      "type": "event"
    },
    {
      "anonymous": false,
      "inputs": [
        {
          "indexed": false,
          "internalType": "address",
          "name": "source",
          "type": "address"
        },
        {
          "indexed": false,
          "internalType": "bool",
          "name": "flag",
          "type": "bool"
        }
      ],
      "name": "SetSource",
      "type": "event"
    },
    {
      "anonymous": false,
      "inputs": [
        {
          "indexed": false,
          "internalType": "address",
          "name": "underlyingToken",
          "type": "address"
        },
        {
          "indexed": false,
          "internalType": "address",
          "name": "transmuter",
          "type": "address"
        }
      ],
      "name": "SetTransmuter",
      "type": "event"
    },
    {
      "inputs": [],
      "name": "ADMIN",
      "outputs": [
        {
          "internalType": "bytes32",
          "name": "",
          "type": "bytes32"
        }
      ],
      "stateMutability": "view",
      "type": "function"
    },
    {
      "inputs": [],
      "name": "DEFAULT_ADMIN_ROLE",
      "outputs": [
        {
          "internalType": "bytes32",
          "name": "",
          "type": "bytes32"
        }
      ],
      "stateMutability": "view",
      "type": "function"
    },
    {
      "inputs": [],
      "name": "KEEPER",
      "outputs": [
        {
          "internalType": "bytes32",
          "name": "",
          "type": "bytes32"
        }
      ],
      "stateMutability": "view",
      "type": "function"
    },
    {
      "inputs": [
        {
          "internalType": "address",
          "name": "",
          "type": "address"
        },
        {
          "internalType": "uint256",
          "name": "",
          "type": "uint256"
        }
      ],
      "name": "_yieldTokens",
      "outputs": [
        {
          "internalType": "address",
          "name": "",
          "type": "address"
        }
      ],
      "stateMutability": "view",
      "type": "function"
    },
    {
      "inputs": [],
      "name": "alchemist",
      "outputs": [
        {
          "internalType": "address",
          "name": "",
          "type": "address"
        }
      ],
      "stateMutability": "view",
      "type": "function"
    },
    {
      "inputs": [
        {
          "internalType": "address",
          "name": "",
          "type": "address"
        }
      ],
      "name": "amos",
      "outputs": [
        {
          "internalType": "address",
          "name": "",
          "type": "address"
        }
      ],
      "stateMutability": "view",
      "type": "function"
    },
    {
      "inputs": [],
      "name": "burnCredit",
      "outputs": [],
      "stateMutability": "nonpayable",
      "type": "function"
    },
    {
      "inputs": [
        {
          "internalType": "address",
          "name": "",
          "type": "address"
        }
      ],
      "name": "currentExchanged",
      "outputs": [
        {
          "internalType": "uint256",
          "name": "",
          "type": "uint256"
        }
      ],
      "stateMutability": "view",
      "type": "function"
    },
    {
      "inputs": [],
      "name": "debtToken",
      "outputs": [
        {
          "internalType": "address",
          "name": "",
          "type": "address"
        }
      ],
      "stateMutability": "view",
      "type": "function"
    },
    {
      "inputs": [
        {
          "internalType": "address",
          "name": "underlyingToken",
          "type": "address"
        },
        {
          "internalType": "uint256",
          "name": "amount",
          "type": "uint256"
        }
      ],
      "name": "depositFunds",
      "outputs": [],
      "stateMutability": "nonpayable",
      "type": "function"
    },
    {
      "inputs": [
        {
          "internalType": "address",
          "name": "",
          "type": "address"
        }
      ],
      "name": "divertToAmo",
      "outputs": [
        {
          "internalType": "bool",
          "name": "",
          "type": "bool"
        }
      ],
      "stateMutability": "view",
      "type": "function"
    },
    {
      "inputs": [
        {
          "internalType": "address",
          "name": "underlyingToken",
          "type": "address"
        }
      ],
      "name": "exchange",
      "outputs": [],
      "stateMutability": "nonpayable",
      "type": "function"
    },
    {
      "inputs": [
        {
          "internalType": "address",
          "name": "",
          "type": "address"
        }
      ],
      "name": "flowAvailable",
      "outputs": [
        {
          "internalType": "uint256",
          "name": "",
          "type": "uint256"
        }
      ],
      "stateMutability": "view",
      "type": "function"
    },
    {
      "inputs": [
        {
          "internalType": "address",
          "name": "",
          "type": "address"
        }
      ],
      "name": "flowRate",
      "outputs": [
        {
          "internalType": "uint256",
          "name": "",
          "type": "uint256"
        }
      ],
      "stateMutability": "view",
      "type": "function"
    },
    {
      "inputs": [
        {
          "internalType": "address",
          "name": "underlyingToken",
          "type": "address"
        },
        {
          "internalType": "uint256",
          "name": "amount",
          "type": "uint256"
        }
      ],
      "name": "flushToAmo",
      "outputs": [],
      "stateMutability": "nonpayable",
      "type": "function"
    },
    {
      "inputs": [
        {
          "internalType": "address",
          "name": "underlyingToken",
          "type": "address"
        }
      ],
      "name": "getAvailableFlow",
      "outputs": [
        {
          "internalType": "uint256",
          "name": "",
          "type": "uint256"
        }
      ],
      "stateMutability": "view",
      "type": "function"
    },
    {
      "inputs": [
        {
          "internalType": "bytes32",
          "name": "role",
          "type": "bytes32"
        }
      ],
      "name": "getRoleAdmin",
      "outputs": [
        {
          "internalType": "bytes32",
          "name": "",
          "type": "bytes32"
        }
      ],
      "stateMutability": "view",
      "type": "function"
    },
    {
      "inputs": [],
      "name": "getTotalCredit",
      "outputs": [
        {
          "internalType": "uint256",
          "name": "credit",
          "type": "uint256"
        }
      ],
      "stateMutability": "view",
      "type": "function"
    },
    {
      "inputs": [
        {
          "internalType": "address",
          "name": "underlyingToken",
          "type": "address"
        }
      ],
      "name": "getTotalUnderlyingBuffered",
      "outputs": [
        {
          "internalType": "uint256",
          "name": "totalBuffered",
          "type": "uint256"
        }
      ],
      "stateMutability": "view",
      "type": "function"
    },
    {
      "inputs": [
        {
          "internalType": "address",
          "name": "weightToken",
          "type": "address"
        },
        {
          "internalType": "address",
          "name": "token",
          "type": "address"
        }
      ],
      "name": "getWeight",
      "outputs": [
        {
          "internalType": "uint256",
          "name": "weight",
          "type": "uint256"
        }
      ],
      "stateMutability": "view",
      "type": "function"
    },
    {
      "inputs": [
        {
          "internalType": "bytes32",
          "name": "role",
          "type": "bytes32"
        },
        {
          "internalType": "address",
          "name": "account",
          "type": "address"
        }
      ],
      "name": "grantRole",
      "outputs": [],
      "stateMutability": "nonpayable",
      "type": "function"
    },
    {
      "inputs": [
        {
          "internalType": "bytes32",
          "name": "role",
          "type": "bytes32"
        },
        {
          "internalType": "address",
          "name": "account",
          "type": "address"
        }
      ],
      "name": "hasRole",
      "outputs": [
        {
          "internalType": "bool",
          "name": "",
          "type": "bool"
        }
      ],
      "stateMutability": "view",
      "type": "function"
    },
    {
      "inputs": [
        {
          "internalType": "address",
          "name": "_admin",
          "type": "address"
        },
        {
          "internalType": "address",
          "name": "_debtToken",
          "type": "address"
        }
      ],
      "name": "initialize",
      "outputs": [],
      "stateMutability": "nonpayable",
      "type": "function"
    },
    {
      "inputs": [
        {
          "internalType": "address",
          "name": "",
          "type": "address"
        }
      ],
      "name": "lastFlowrateUpdate",
      "outputs": [
        {
          "internalType": "uint256",
          "name": "",
          "type": "uint256"
        }
      ],
      "stateMutability": "view",
      "type": "function"
    },
    {
      "inputs": [
        {
          "internalType": "address",
          "name": "underlyingToken",
          "type": "address"
        },
        {
          "internalType": "uint256",
          "name": "amount",
          "type": "uint256"
        }
      ],
      "name": "onERC20Received",
      "outputs": [],
      "stateMutability": "nonpayable",
      "type": "function"
    },
    {
      "inputs": [],
      "name": "refreshStrategies",
      "outputs": [],
      "stateMutability": "nonpayable",
      "type": "function"
    },
    {
      "inputs": [
        {
          "internalType": "address",
          "name": "underlyingToken",
          "type": "address"
        },
        {
          "internalType": "address",
          "name": "_transmuter",
          "type": "address"
        }
      ],
      "name": "registerAsset",
      "outputs": [],
      "stateMutability": "nonpayable",
      "type": "function"
    },
    {
      "inputs": [
        {
          "internalType": "uint256",
          "name": "",
          "type": "uint256"
        }
      ],
      "name": "registeredUnderlyings",
      "outputs": [
        {
          "internalType": "address",
          "name": "",
          "type": "address"
        }
      ],
      "stateMutability": "view",
      "type": "function"
    },
    {
      "inputs": [
        {
          "internalType": "bytes32",
          "name": "role",
          "type": "bytes32"
        },
        {
          "internalType": "address",
          "name": "account",
          "type": "address"
        }
      ],
      "name": "renounceRole",
      "outputs": [],
      "stateMutability": "nonpayable",
      "type": "function"
    },
    {
      "inputs": [
        {
          "internalType": "bytes32",
          "name": "role",
          "type": "bytes32"
        },
        {
          "internalType": "address",
          "name": "account",
          "type": "address"
        }
      ],
      "name": "revokeRole",
      "outputs": [],
      "stateMutability": "nonpayable",
      "type": "function"
    },
    {
      "inputs": [
        {
          "internalType": "address",
          "name": "_alchemist",
          "type": "address"
        }
      ],
      "name": "setAlchemist",
      "outputs": [],
      "stateMutability": "nonpayable",
      "type": "function"
    },
    {
      "inputs": [
        {
          "internalType": "address",
          "name": "underlyingToken",
          "type": "address"
        },
        {
          "internalType": "address",
          "name": "amo",
          "type": "address"
        }
      ],
      "name": "setAmo",
      "outputs": [],
      "stateMutability": "nonpayable",
      "type": "function"
    },
    {
      "inputs": [
        {
          "internalType": "address",
          "name": "underlyingToken",
          "type": "address"
        },
        {
          "internalType": "bool",
          "name": "divert",
          "type": "bool"
        }
      ],
      "name": "setDivertToAmo",
      "outputs": [],
      "stateMutability": "nonpayable",
      "type": "function"
    },
    {
      "inputs": [
        {
          "internalType": "address",
          "name": "underlyingToken",
          "type": "address"
        },
        {
          "internalType": "uint256",
          "name": "_flowRate",
          "type": "uint256"
        }
      ],
      "name": "setFlowRate",
      "outputs": [],
      "stateMutability": "nonpayable",
      "type": "function"
    },
    {
      "inputs": [
        {
          "internalType": "address",
          "name": "source",
          "type": "address"
        },
        {
          "internalType": "bool",
          "name": "flag",
          "type": "bool"
        }
      ],
      "name": "setSource",
      "outputs": [],
      "stateMutability": "nonpayable",
      "type": "function"
    },
    {
      "inputs": [
        {
          "internalType": "address",
          "name": "underlyingToken",
          "type": "address"
        },
        {
          "internalType": "address",
          "name": "newTransmuter",
          "type": "address"
        }
      ],
      "name": "setTransmuter",
      "outputs": [],
      "stateMutability": "nonpayable",
      "type": "function"
    },
    {
      "inputs": [
        {
          "internalType": "address",
          "name": "weightToken",
          "type": "address"
        },
        {
          "internalType": "address[]",
          "name": "tokens",
          "type": "address[]"
        },
        {
          "internalType": "uint256[]",
          "name": "weights",
          "type": "uint256[]"
        }
      ],
      "name": "setWeights",
      "outputs": [],
      "stateMutability": "nonpayable",
      "type": "function"
    },
    {
      "inputs": [
        {
          "internalType": "address",
          "name": "",
          "type": "address"
        }
      ],
      "name": "sources",
      "outputs": [
        {
          "internalType": "bool",
          "name": "",
          "type": "bool"
        }
      ],
      "stateMutability": "view",
      "type": "function"
    },
    {
      "inputs": [
        {
          "internalType": "bytes4",
          "name": "interfaceId",
          "type": "bytes4"
        }
      ],
      "name": "supportsInterface",
      "outputs": [
        {
          "internalType": "bool",
          "name": "",
          "type": "bool"
        }
      ],
      "stateMutability": "view",
      "type": "function"
    },
    {
      "inputs": [
        {
          "internalType": "address",
          "name": "",
          "type": "address"
        }
      ],
      "name": "transmuter",
      "outputs": [
        {
          "internalType": "address",
          "name": "",
          "type": "address"
        }
      ],
      "stateMutability": "view",
      "type": "function"
    },
    {
      "inputs": [],
      "name": "version",
      "outputs": [
        {
          "internalType": "string",
          "name": "",
          "type": "string"
        }
      ],
      "stateMutability": "view",
      "type": "function"
    },
    {
      "inputs": [
        {
          "internalType": "address",
          "name": "",
          "type": "address"
        }
      ],
      "name": "weightings",
      "outputs": [
        {
          "internalType": "uint256",
          "name": "totalWeight",
          "type": "uint256"
        }
      ],
      "stateMutability": "view",
      "type": "function"
    },
    {
      "inputs": [
        {
          "internalType": "address",
          "name": "underlyingToken",
          "type": "address"
        },
        {
          "internalType": "uint256",
          "name": "amount",
          "type": "uint256"
        },
        {
          "internalType": "address",
          "name": "recipient",
          "type": "address"
        }
      ],
      "name": "withdraw",
      "outputs": [],
      "stateMutability": "nonpayable",
      "type": "function"
    },
    {
      "inputs": [
        {
          "internalType": "address",
          "name": "yieldToken",
          "type": "address"
        },
        {
          "internalType": "uint256",
          "name": "shares",
          "type": "uint256"
        },
        {
          "internalType": "uint256",
          "name": "minimumAmountOut",
          "type": "uint256"
        }
      ],
      "name": "withdrawFromAlchemist",
      "outputs": [],
      "stateMutability": "nonpayable",
      "type": "function"
    }
  ],
  "transactionHash": "0x0cba59c41603294f23a94172f7adea09ba888e5c25901619014ca12c512d793c",
  "args": [],
  "solcInputHash": "ca5da8cc15d0faf656aceedb434ea182",
  "bytecode": "0x60806040523480156200001157600080fd5b50600154610100900460ff166200002f5760015460ff161562000039565b62000039620000de565b620000a15760405162461bcd60e51b815260206004820152602e60248201527f496e697469616c697a61626c653a20636f6e747261637420697320616c72656160448201526d191e481a5b9a5d1a585b1a5e995960921b606482015260840160405180910390fd5b600154610100900460ff16158015620000c4576001805461ffff19166101011790555b8015620000d7576001805461ff00191690555b506200010b565b6000620000f630620000fc60201b62001f1a1760201c565b15905090565b6001600160a01b03163b151590565b6137bb806200011b6000396000f3fe608060405234801561001057600080fd5b50600436106102735760003560e01c8063862a179e11610151578063b750bdde116100c3578063d547741f11610087578063d547741f14610652578063f1af775f14610665578063f305760814610678578063f79d845814610680578063f80254ed14610688578063f8d89898146106a857600080fd5b8063b750bdde146105c0578063bc04f0af146105e3578063bda767ab146105f6578063bee3d90e1461061f578063cb1475881461063f57600080fd5b8063921b004b11610115578063921b004b1461052657806392b30c3e14610539578063998d1f021461054c578063a117789b1461055f578063a217fddf1461057f578063a48173211461058757600080fd5b8063862a179e146104a25780638aef4058146104b75780638de925f6146104da57806391d14854146104f35780639201c4541461050657600080fd5b80634027fdf8116101ea5780634fad6bff116101ae5780634fad6bff146103ec578063537f46cc146103ff57806354fd4d50146104285780635ad639251461045957806369328dec1461047c578063841a0b4a1461048f57600080fd5b80634027fdf81461039857806340b197f3146103ab578063485cc955146103be5780634dac3435146103d15780634fa98251146103e457600080fd5b806326128ec91161023c57806326128ec9146103245780632a0acc6a146103375780632b8c1eed1461034c5780632f2ff15d1461035f57806336568abe146103725780633a0ee64d1461038557600080fd5b806212ac341461027857806301ffc9a71461028d57806314d17f9e146102b55780632412bdb8146102e0578063248a9ca3146102f3575b600080fd5b61028b610286366004612e2f565b6106bb565b005b6102a061029b366004612e68565b6107ee565b60405190151581526020015b60405180910390f35b6102c86102c3366004612e92565b610825565b6040516001600160a01b0390911681526020016102ac565b61028b6102ee366004612ebe565b61085d565b610316610301366004612edb565b60009081526020819052604090206001015490565b6040519081526020016102ac565b610316610332366004612ebe565b61089d565b61031660008051602061376683398151915281565b61028b61035a366004612f02565b6108f5565b61028b61036d366004612f30565b610985565b61028b610380366004612f30565b6109b0565b61028b610393366004612f55565b610a33565b6103166103a6366004612ebe565b610aeb565b61028b6103b9366004612f02565b610b83565b61028b6103cc366004612e2f565b610c53565b61028b6103df366004612e92565b610d7e565b61028b610e0c565b61028b6103fa366004612e2f565b610f4f565b6102c861040d366004612ebe565b6002602052600090815260409020546001600160a01b031681565b61044c604051806040016040528060058152602001640322e322e360dc1b81525081565b6040516102ac9190612fe2565b6102a0610467366004612ebe565b600d6020526000908152604090205460ff1681565b61028b61048a366004612ff5565b6111db565b6102c861049d366004612edb565b6112eb565b61031660008051602061374683398151915281565b6103166104c5366004612ebe565b600a6020526000908152604090206002015481565b6001546102c8906201000090046001600160a01b031681565b6102a0610501366004612f30565b611315565b610316610514366004612ebe565b60076020526000908152604090205481565b61028b610534366004612e92565b61133e565b61028b610547366004612e2f565b611418565b61028b61055a366004612e92565b6114b0565b61031661056d366004612ebe565b60036020526000908152604090205481565b610316600081565b610316610595366004612e2f565b6001600160a01b039182166000908152600a6020908152604080832093909416825291909152205490565b6102a06105ce366004612ebe565b600b6020526000908152604090205460ff1681565b61028b6105f1366004612e92565b611528565b6102c8610604366004612ebe565b600c602052600090815260409020546001600160a01b031681565b61031661062d366004612ebe565b60056020526000908152604090205481565b61028b61064d366004613137565b61172d565b61028b610660366004612f30565b61199a565b61028b610673366004612ebe565b6119c0565b610316611bb1565b61028b611c56565b610316610696366004612ebe565b60046020526000908152604090205481565b6009546102c8906001600160a01b031681565b6106d360008051602061376683398151915233611315565b6106ef576040516282b42960e81b815260040160405180910390fd5b816001600160a01b0316816001600160a01b0316632495a5996040518163ffffffff1660e01b8152600401602060405180830381865afa158015610737573d6000803e3d6000fd5b505050506040513d601f19601f8201168201806040525081019061075b919061321d565b6001600160a01b03161461078257604051630134249960e71b815260040160405180910390fd5b6001600160a01b0382811660008181526002602090815260409182902080546001600160a01b031916948616948517905581519283528201929092527f5f5f1867949f882317e4afdbddb02296f5681564a3765f0fbb21bc5b6f506e5891015b60405180910390a15050565b60006001600160e01b03198216637965db0b60e01b148061081f57506301ffc9a760e01b6001600160e01b03198316145b92915050565b6006602052816000526040600020818154811061084157600080fd5b6000918252602090912001546001600160a01b03169150829050565b61087560008051602061374683398151915233611315565b610891576040516282b42960e81b815260040160405180910390fd5b61089a81611f29565b50565b6000806108a983610aeb565b6001600160a01b0384166000908152600560205260409020549091508110156108d25792915050565b50506001600160a01b031660009081526005602052604090205490565b50919050565b61090d60008051602061376683398151915233611315565b610929576040516282b42960e81b815260040160405180910390fd5b6001600160a01b0382166000818152600d6020908152604091829020805460ff19168515159081179091558251938452908301527f38909864ac117912887340db9ae77970b92a73e526f22e9315eaa521b1efeb8a91016107e2565b6000828152602081905260409020600101546109a18133612110565b6109ab8383612174565b505050565b6001600160a01b0381163314610a255760405162461bcd60e51b815260206004820152602f60248201527f416363657373436f6e74726f6c3a2063616e206f6e6c792072656e6f756e636560448201526e103937b632b9903337b91039b2b63360891b60648201526084015b60405180910390fd5b610a2f82826121f8565b5050565b610a4b60008051602061374683398151915233611315565b610a67576040516282b42960e81b815260040160405180910390fd5b600154604051635322cd1960e11b8152620100009091046001600160a01b03169063a6459a3290610aa290869086903090879060040161323a565b6020604051808303816000875af1158015610ac1573d6000803e3d6000fd5b505050506040513d601f19601f82011682018060405250810190610ae59190613264565b50505050565b6000610af7823061225d565b905060005b6001600160a01b0383166000908152600660205260409020548110156108ef576001600160a01b03831660009081526006602052604090208054610b65919083908110610b4b57610b4b61327d565b6000918252602090912001546001600160a01b031661234b565b610b6f90836132a9565b915080610b7b816132c1565b915050610afc565b610b9b60008051602061376683398151915233611315565b610bb7576040516282b42960e81b815260040160405180910390fd5b6001600160a01b0382166000908152600b602052604090205460ff1615158115151415610bf757604051630134249960e71b815260040160405180910390fd5b6001600160a01b0382166000818152600b6020908152604091829020805460ff19168515159081179091558251938452908301527fc55dd2342fb6a4c8580b302e5a10b68c01cdee01d65763a40089df970fd687c591016107e2565b600154610100900460ff16610c6e5760015460ff1615610c72565b303b155b610cd55760405162461bcd60e51b815260206004820152602e60248201527f496e697469616c697a61626c653a20636f6e747261637420697320616c72656160448201526d191e481a5b9a5d1a585b1a5e995960921b6064820152608401610a1c565b600154610100900460ff16158015610cf7576001805461ffff19166101011790555b610d0f600080516020613766833981519152846124e6565b610d27600080516020613766833981519152806124f0565b610d4d6000805160206137468339815191526000805160206137668339815191526124f0565b600980546001600160a01b0319166001600160a01b03841617905580156109ab576001805461ff0019169055505050565b610d9660008051602061376683398151915233611315565b610db2576040516282b42960e81b815260040160405180910390fd5b610dbb82611f29565b6001600160a01b038216600081815260036020908152604091829020849055815192835282018390527f9b851d18ba551205a781cfd2d54e04373b966024d91f688b03448eee2ea1041c91016107e2565b610e2460008051602061374683398151915233611315565b610e40576040516282b42960e81b815260040160405180910390fd5b600154604051632c6a65eb60e21b8152306004820152620100009091046001600160a01b03169063b1a997ac90602401600060405180830381600087803b158015610e8a57600080fd5b505af1158015610e9e573d6000803e3d6000fd5b505050506000610eac611bb1565b905080610ecc57604051634a613c4160e01b815260040160405180910390fd5b6001546040516394bf804d60e01b815260048101839052306024820152620100009091046001600160a01b0316906394bf804d90604401600060405180830381600087803b158015610f1d57600080fd5b505af1158015610f31573d6000803e3d6000fd5b505060095461089a92508391506001600160a01b031661253b6125a5565b610f6760008051602061376683398151915233611315565b610f83576040516282b42960e81b815260040160405180910390fd5b600154604051632f72a98160e11b81526001600160a01b0384811660048301526201000090920490911690635ee5530290602401602060405180830381865afa158015610fd4573d6000803e3d6000fd5b505050506040513d601f19601f82011682018060405250810190610ff891906132e7565b61101557604051634a613c4160e01b815260040160405180910390fd5b60005b60085481101561108557826001600160a01b03166008828154811061103f5761103f61327d565b6000918252602090912001546001600160a01b0316141561107357604051634a613c4160e01b815260040160405180910390fd5b8061107d816132c1565b915050611018565b50816001600160a01b0316816001600160a01b0316632495a5996040518163ffffffff1660e01b8152600401602060405180830381865afa1580156110ce573d6000803e3d6000fd5b505050506040513d601f19601f820116820180604052508101906110f2919061321d565b6001600160a01b03161461111957604051630134249960e71b815260040160405180910390fd5b6001600160a01b03808316600081815260026020526040812080548486166001600160a01b0319918216179091556008805460018181018355919093527ff3f7a9fe364faab93b216da50a3214154f22a0a2b415b23a84c8169e8b636ee390920180549091169092179091555461119b918491620100009004166000196126ab565b604080516001600160a01b038085168252831660208201527fe3fc1075bf266cb7785ff5a63ee95d60aee4ccbfb42f6f5562e811edc26f6a2091016107e2565b6001600160a01b038381166000908152600260205260409020548491163314611216576040516282b42960e81b815260040160405180910390fd5b6001600160a01b03841660009081526005602052604090205483111561124f57604051630134249960e71b815260040160405180910390fd5b600061125b853061225d565b90508084111561127e57604051630134249960e71b815260040160405180910390fd5b6001600160a01b038516600090815260056020526040812080548692906112a6908490613304565b90915550506001600160a01b038516600090815260076020526040812080548692906112d3908490613304565b909155506112e490508584866127ac565b5050505050565b600881815481106112fb57600080fd5b6000918252602090912001546001600160a01b0316905081565b6000918252602082815260408084206001600160a01b0393909316845291905290205460ff1690565b61135660008051602061374683398151915233611315565b611372576040516282b42960e81b815260040160405180910390fd5b8061139057604051630134249960e71b815260040160405180910390fd5b600061139c833061225d565b9050818110156113bf57604051630134249960e71b815260040160405180910390fd5b6113c8836127df565b506001600160a01b0383166000908152600760205260409020546113ec8383613304565b101561140b57604051634a613c4160e01b815260040160405180910390fd5b6109ab828461286c6125a5565b61143060008051602061376683398151915233611315565b61144c576040516282b42960e81b815260040160405180910390fd5b6001600160a01b038281166000818152600c602090815260409182902080546001600160a01b031916948616948517905581519283528201929092527f57584a919ad37ab32daa3e793f7a0d8a22b05ec1374b1e0e398c31bf04a6cb0691016107e2565b6114c860008051602061374683398151915233611315565b6114e4576040516282b42960e81b815260040160405180910390fd5b6001600160a01b0382166000908152600d602052604090205460ff161561150f57610a2f82826128eb565b604051634a613c4160e01b815260040160405180910390fd5b336000908152600b602052604090205460ff16611557576040516282b42960e81b815260040160405180910390fd5b6001600160a01b0382166000908152600d602052604090205460ff161561158257610a2f82826128eb565b61158b826127df565b506000611598833061225d565b6001600160a01b03841660009081526005602052604090205490915081101561165a576001600160a01b038316600090815260076020526040812080548492906115e39084906132a9565b90915550506001600160a01b0383811660009081526002602052604090819020549051635355655960e01b815260048101859052911690635355655990602401600060405180830381600087803b15801561163d57600080fd5b505af1158015611651573d6000803e3d6000fd5b50505050505050565b6001600160a01b03831660009081526007602090815260408083205460059092528220546116889190613304565b6001600160a01b0385166000908152600760205260408120805492935083929091906116b59084906132a9565b90915550506001600160a01b0384811660009081526002602052604090819020549051635355655960e01b815260048101849052911690635355655990602401600060405180830381600087803b15801561170f57600080fd5b505af1158015611723573d6000803e3d6000fd5b5050505050505050565b61174560008051602061376683398151915233611315565b611761576040516282b42960e81b815260040160405180910390fd5b6001600160a01b0383166000908152600a6020526040812090611788906001830190612dec565b6000600282018190555b83518110156112e45760008482815181106117af576117af61327d565b60209081029190910101516009549091506001600160a01b038781169116146118e957600154604051635a5efc8b60e01b81526001600160a01b0383811660048301526000926201000090041690635a5efc8b906024016101e060405180830381865afa158015611824573d6000803e3d6000fd5b505050506040513d601f19601f82011682018060405250810190611848919061332c565b9050600081604001516001600160a01b0316632495a5996040518163ffffffff1660e01b8152600401602060405180830381865afa15801561188e573d6000803e3d6000fd5b505050506040513d601f19601f820116820180604052508101906118b2919061321d565b9050806001600160a01b0316886001600160a01b0316146118e657604051634a613c4160e01b815260040160405180910390fd5b50505b6001838101805491820181556000908152602090200180546001600160a01b0319166001600160a01b038316179055835184908390811061192c5761192c61327d565b6020908102919091018101516001600160a01b03831660009081529185905260409091205583518490839081106119655761196561327d565b602002602001015183600201600082825461198091906132a9565b909155508291506119929050816132c1565b915050611792565b6000828152602081905260409020600101546119b68133612110565b6109ab83836121f8565b6119d860008051602061376683398151915233611315565b6119f4576040516282b42960e81b815260040160405180910390fd5b600180546001600160a01b03620100009182900481166000908152600b6020526040808220805460ff19908116909155868416835291208054909116841790559154041615611ac15760005b600854811015611a9c57611a8a60088281548110611a6057611a6061327d565b60009182526020822001546001546001600160a01b039182169262010000909104909116906126ab565b80611a94816132c1565b915050611a40565b50600954600154611ac1916001600160a01b03908116916201000090041660006126ab565b6001805462010000600160b01b031916620100006001600160a01b0384160217905560005b600854811015611b4357611b3160088281548110611b0657611b0661327d565b6000918252602090912001546001546001600160a01b039182169162010000909104166000196126ab565b80611b3b816132c1565b915050611ae6565b50600954600154611b69916001600160a01b0390811691620100009004166000196126ab565b600154604051620100009091046001600160a01b031681527fb5f3602a1d2783f0976eae6d619f386b298bd951e94fa8e56bfedf853e7d88759060200160405180910390a150565b600154604051632f2e037160e11b81523060048201526000918291620100009091046001600160a01b031690635e5c06e290602401600060405180830381865afa158015611c03573d6000803e3d6000fd5b505050506040513d6000823e601f3d908101601f19168201604052611c2b9190810190613465565b5090506000811215611c4d57611c48611c43826134ac565b61295b565b611c50565b60005b91505090565b6000600160029054906101000a90046001600160a01b03166001600160a01b0316631b962c786040518163ffffffff1660e01b8152600401600060405180830381865afa158015611cab573d6000803e3d6000fd5b505050506040513d6000823e601f3d908101601f19168201604052611cd391908101906134c9565b90506000600160029054906101000a90046001600160a01b03166001600160a01b0316634a2226356040518163ffffffff1660e01b8152600401600060405180830381865afa158015611d2a573d6000803e3d6000fd5b505050506040513d6000823e601f3d908101601f19168201604052611d5291908101906134c9565b805160085491925014611d7857604051634a613c4160e01b815260040160405180910390fd5b60005b600854811015611ddb576006600060088381548110611d9c57611d9c61327d565b60009182526020808320909101546001600160a01b031683528201929092526040018120611dc991612dec565b80611dd3816132c1565b915050611d7b565b50815160005b81811015611eeb576000848281518110611dfd57611dfd61327d565b6020908102919091010151600154604051635a5efc8b60e01b81526001600160a01b0380841660048301529293506000926201000090920490911690635a5efc8b906024016101e060405180830381865afa158015611e60573d6000803e3d6000fd5b505050506040513d601f19601f82011682018060405250810190611e84919061332c565b9050806101c0015115611ed6576020818101516001600160a01b0390811660009081526006835260408120805460018101825590825292902090910180546001600160a01b0319169184169190911790555b50508080611ee3906132c1565b915050611de1565b506040517fdfe7090a5461eb5a45d9e05a1317dfcd47d74fd2f14e0989619808f3aac43aa590600090a1505050565b6001600160a01b03163b151590565b611f32816127df565b506000611f3e82610aeb565b90506000611f4c833061225d565b6001600160a01b03841660009081526005602052604081205491925090831015611f8157611f7a8284613304565b9050611fc8565b6001600160a01b038416600090815260056020526040902054821015611fc8576001600160a01b038416600090815260056020526040902054611fc5908390613304565b90505b8015611fdb57611fdb81856129826125a5565b6000611fe7853061225d565b6001600160a01b03861660009081526005602052604081205491925090821115612041576001600160a01b03861660009081526007602090815260408083205460059092529091205461203a9190613304565b9050612067565b6001600160a01b0386166000908152600760205260409020546120649083613304565b90505b8015612108576001600160a01b038616600090815260076020526040812080548392906120959084906132a9565b90915550506001600160a01b0386811660009081526002602052604090819020549051635355655960e01b815260048101849052911690635355655990602401600060405180830381600087803b1580156120ef57600080fd5b505af1158015612103573d6000803e3d6000fd5b505050505b505050505050565b61211a8282611315565b610a2f57612132816001600160a01b03166014612b70565b61213d836020612b70565b60405160200161214e9291906134fe565b60408051601f198184030181529082905262461bcd60e51b8252610a1c91600401612fe2565b61217e8282611315565b610a2f576000828152602081815260408083206001600160a01b03851684529091529020805460ff191660011790556121b43390565b6001600160a01b0316816001600160a01b0316837f2f8788117e7eff1d82e926ec794901d17c78024a50270940304540a733656f0d60405160405180910390a45050565b6122028282611315565b15610a2f576000828152602081815260408083206001600160a01b0385168085529252808320805460ff1916905551339285917ff6391f5c32d9c69d2a47ea670b442974b53935d1edc7fd64eb21e047a839171b9190a45050565b604080516001600160a01b0383811660248084019190915283518084039091018152604490920183526020820180516001600160e01b03166370a0823160e01b179052915160009283928392918716916122b79190613573565b600060405180830381855afa9150503d80600081146122f2576040519150601f19603f3d011682016040523d82523d6000602084013e6122f7565b606091505b509150915081158061230a575060208151105b1561232e5784828260405163e7e40b5b60e01b8152600401610a1c9392919061358f565b808060200190518101906123429190613264565b95945050505050565b600154604051634bd2144560e01b81523060048201526001600160a01b03838116602483015260009283926201000090910490911690634bd21445906044016040805180830381865afa1580156123a6573d6000803e3d6000fd5b505050506040513d601f19601f820116820180604052508101906123ca91906135bb565b50600154604051635a5efc8b60e01b81526001600160a01b0386811660048301529293506000926201000090920490911690635a5efc8b906024016101e060405180830381865afa158015612423573d6000803e3d6000fd5b505050506040513d601f19601f82011682018060405250810190612447919061332c565b60015460405163447378ad60e11b81526001600160a01b03878116600483015292935060009262010000909204909116906388e6f15a90602401602060405180830381865afa15801561249e573d6000803e3d6000fd5b505050506040513d601f19601f820116820180604052508101906124c29190613264565b82519091506124d290600a6136c3565b6124dc82856136d2565b61234291906136f1565b610a2f8282612174565b600082815260208190526040808220600101805490849055905190918391839186917fbd79b86ffe0ab8e8776151514217cd7cacd52c909f66475c3af44e129f0b00ff9190a4505050565b60015460405163e69d849d60e01b81526001600160a01b03848116600483015260248201849052620100009092049091169063e69d849d906044015b600060405180830381600087803b15801561259157600080fd5b505af1158015612108573d6000803e3d6000fd5b600154604051632c6a65eb60e21b8152306004820152620100009091046001600160a01b03169063b1a997ac90602401600060405180830381600087803b1580156125ef57600080fd5b505af1158015612603573d6000803e3d6000fd5b5050506001600160a01b0383166000908152600a6020526040812091505b60018201548110156112e45760008260010182815481106126445761264461327d565b600091825260208083209091015460028601546001600160a01b039091168084529186905260408320549193509061267c90896136d2565b61268691906136f1565b905061269682828763ffffffff16565b505080806126a3906132c1565b915050612621565b6040516001600160a01b03838116602483015260448201839052600091829186169063095ea7b360e01b906064015b60408051601f198184030181529181526020820180516001600160e01b03166001600160e01b03199094169390931790925290516127189190613573565b6000604051808303816000865af19150503d8060008114612755576040519150601f19603f3d011682016040523d82523d6000602084013e61275a565b606091505b5091509150811580612788575080511580159061278857508080602001905181019061278691906132e7565b155b156112e45784828260405163e7e40b5b60e01b8152600401610a1c9392919061358f565b6040516001600160a01b03838116602483015260448201839052600091829186169063a9059cbb60e01b906064016126da565b6001600160a01b03811660009081526003602090815260408083205460049092528220548291906128109042613304565b61281a91906136d2565b6001600160a01b0384166000908152600560205260408120805492935083929091906128479084906132a9565b90915550506001600160a01b0390921660009081526004602052604090204290555090565b600154604051635efd4dd760e11b8152620100009091046001600160a01b03169063bdfa9bae906128a89085908590309060009060040161323a565b6020604051808303816000875af11580156128c7573d6000803e3d6000fd5b505050506040513d601f19601f820116820180604052508101906109ab9190613264565b6001600160a01b038083166000908152600c602052604090205461291291849116836127ac565b6001600160a01b038281166000818152600c60205260409081902054905163bc04f0af60e01b81526004810192909252602482018490529091169063bc04f0af90604401612577565b60008082121561297e57604051630134249960e71b815260040160405180910390fd5b5090565b600061298d83612d13565b60015460405163447378ad60e11b81526001600160a01b03868116600483015292935060009262010000909204909116906388e6f15a90602401602060405180830381865afa1580156129e4573d6000803e3d6000fd5b505050506040513d601f19601f82011682018060405250810190612a089190613264565b9050600081612a1884600a6136c3565b612a2290866136d2565b612a2c91906136f1565b600154604051634bd2144560e01b81523060048201526001600160a01b03888116602483015292935060009283926201000090041690634bd21445906044016040805180830381865afa158015612a87573d6000803e3d6000fd5b505050506040513d601f19601f82011682018060405250810190612aab91906135bb565b9150915081831115612abb578192505b6000612710612acb8860646136d2565b612ad591906136f1565b612adf9088613304565b9050831561172357600154604051635322cd1960e11b8152620100009091046001600160a01b03169063a6459a3290612b22908b9088903090879060040161323a565b6020604051808303816000875af1158015612b41573d6000803e3d6000fd5b505050506040513d601f19601f82011682018060405250810190612b659190613264565b505050505050505050565b60606000612b7f8360026136d2565b612b8a9060026132a9565b67ffffffffffffffff811115612ba257612ba2613037565b6040519080825280601f01601f191660200182016040528015612bcc576020820181803683370190505b509050600360fc1b81600081518110612be757612be761327d565b60200101906001600160f81b031916908160001a905350600f60fb1b81600181518110612c1657612c1661327d565b60200101906001600160f81b031916908160001a9053506000612c3a8460026136d2565b612c459060016132a9565b90505b6001811115612cbd576f181899199a1a9b1b9c1cb0b131b232b360811b85600f1660108110612c7957612c7961327d565b1a60f81b828281518110612c8f57612c8f61327d565b60200101906001600160f81b031916908160001a90535060049490941c93612cb681613713565b9050612c48565b508315612d0c5760405162461bcd60e51b815260206004820181905260248201527f537472696e67733a20686578206c656e67746820696e73756666696369656e746044820152606401610a1c565b9392505050565b60408051600481526024810182526020810180516001600160e01b031663313ce56760e01b1790529051600091829182916001600160a01b03861691612d599190613573565b600060405180830381855afa9150503d8060008114612d94576040519150601f19603f3d011682016040523d82523d6000602084013e612d99565b606091505b5091509150811580612dac575060208151105b15612dd05783828260405163e7e40b5b60e01b8152600401610a1c9392919061358f565b80806020019051810190612de4919061372a565b949350505050565b508054600082559060005260206000209081019061089a91905b8082111561297e5760008155600101612e06565b6001600160a01b038116811461089a57600080fd5b60008060408385031215612e4257600080fd5b8235612e4d81612e1a565b91506020830135612e5d81612e1a565b809150509250929050565b600060208284031215612e7a57600080fd5b81356001600160e01b031981168114612d0c57600080fd5b60008060408385031215612ea557600080fd5b8235612eb081612e1a565b946020939093013593505050565b600060208284031215612ed057600080fd5b8135612d0c81612e1a565b600060208284031215612eed57600080fd5b5035919050565b801515811461089a57600080fd5b60008060408385031215612f1557600080fd5b8235612f2081612e1a565b91506020830135612e5d81612ef4565b60008060408385031215612f4357600080fd5b823591506020830135612e5d81612e1a565b600080600060608486031215612f6a57600080fd5b8335612f7581612e1a565b95602085013595506040909401359392505050565b60005b83811015612fa5578181015183820152602001612f8d565b83811115610ae55750506000910152565b60008151808452612fce816020860160208601612f8a565b601f01601f19169290920160200192915050565b602081526000612d0c6020830184612fb6565b60008060006060848603121561300a57600080fd5b833561301581612e1a565b925060208401359150604084013561302c81612e1a565b809150509250925092565b634e487b7160e01b600052604160045260246000fd5b6040516101e0810167ffffffffffffffff8111828210171561307157613071613037565b60405290565b604051601f8201601f1916810167ffffffffffffffff811182821017156130a0576130a0613037565b604052919050565b600067ffffffffffffffff8211156130c2576130c2613037565b5060051b60200190565b600082601f8301126130dd57600080fd5b813560206130f26130ed836130a8565b613077565b82815260059290921b8401810191818101908684111561311157600080fd5b8286015b8481101561312c5780358352918301918301613115565b509695505050505050565b60008060006060848603121561314c57600080fd5b833561315781612e1a565b925060208481013567ffffffffffffffff8082111561317557600080fd5b818701915087601f83011261318957600080fd5b81356131976130ed826130a8565b81815260059190911b8301840190848101908a8311156131b657600080fd5b938501935b828510156131dd5784356131ce81612e1a565b825293850193908501906131bb565b9650505060408701359250808311156131f557600080fd5b5050613203868287016130cc565b9150509250925092565b805161321881612e1a565b919050565b60006020828403121561322f57600080fd5b8151612d0c81612e1a565b6001600160a01b039485168152602081019390935292166040820152606081019190915260800190565b60006020828403121561327657600080fd5b5051919050565b634e487b7160e01b600052603260045260246000fd5b634e487b7160e01b600052601160045260246000fd5b600082198211156132bc576132bc613293565b500190565b60006000198214156132d5576132d5613293565b5060010190565b805161321881612ef4565b6000602082840312156132f957600080fd5b8151612d0c81612ef4565b60008282101561331657613316613293565b500390565b805160ff8116811461321857600080fd5b60006101e0828403121561333f57600080fd5b61334761304d565b6133508361331b565b815261335e6020840161320d565b602082015261336f6040840161320d565b6040820152606083810151908201526080808401519082015260a0808401519082015260c0808401519082015260e08084015190820152610100808401519082015261012080840151908201526101408084015190820152610160808401519082015261018080840151908201526101a080840151908201526101c06133f68185016132dc565b908201529392505050565b600082601f83011261341257600080fd5b815160206134226130ed836130a8565b82815260059290921b8401810191818101908684111561344157600080fd5b8286015b8481101561312c57805161345881612e1a565b8352918301918301613445565b6000806040838503121561347857600080fd5b82519150602083015167ffffffffffffffff81111561349657600080fd5b6134a285828601613401565b9150509250929050565b6000600160ff1b8214156134c2576134c2613293565b5060000390565b6000602082840312156134db57600080fd5b815167ffffffffffffffff8111156134f257600080fd5b612de484828501613401565b7f416363657373436f6e74726f6c3a206163636f756e7420000000000000000000815260008351613536816017850160208801612f8a565b7001034b99036b4b9b9b4b733903937b6329607d1b6017918401918201528351613567816028840160208801612f8a565b01602801949350505050565b60008251613585818460208701612f8a565b9190910192915050565b6001600160a01b0384168152821515602082015260606040820181905260009061234290830184612fb6565b600080604083850312156135ce57600080fd5b505080516020909101519092909150565b600181815b8085111561361a57816000190482111561360057613600613293565b8085161561360d57918102915b93841c93908002906135e4565b509250929050565b6000826136315750600161081f565b8161363e5750600061081f565b8160018114613654576002811461365e5761367a565b600191505061081f565b60ff84111561366f5761366f613293565b50506001821b61081f565b5060208310610133831016604e8410600b841016171561369d575081810a61081f565b6136a783836135df565b80600019048211156136bb576136bb613293565b029392505050565b6000612d0c60ff841683613622565b60008160001904831182151516156136ec576136ec613293565b500290565b60008261370e57634e487b7160e01b600052601260045260246000fd5b500490565b60008161372257613722613293565b506000190190565b60006020828403121561373c57600080fd5b612d0c8261331b56fe71a9859d7dd21b24504a6f306077ffc2d510b4d4b61128e931fe937441ad1836df8b4c520ffe197c5343c6f5aec59570151ef9a492f2c624fd45ddde6135ec42a2646970667358221220148710fe0d26d933e5b70ecc94f45c5b48ae939a89af464c5a190576c41379b464736f6c634300080b0033",
  "devdoc": {
    "author": "Alchemix Finance",
    "errors": {
      "ERC20CallFailed(address,bool,bytes)": [
        {
          "params": {
            "data": "The resulting data from the call. This is error data when the call was not a success. Otherwise,                this is malformed data when the call was a success.",
            "success": "If the call to the token was a success.",
            "target": "The target address."
          }
        }
      ]
    },
    "kind": "dev",
    "methods": {
      "depositFunds(address,uint256)": {
        "params": {
          "amount": "The amount to deposit.",
          "underlyingToken": "The collateral to deposit."
        }
      },
      "exchange(address)": {
        "params": {
          "underlyingToken": "The address of the underlying token to exchange."
        }
      },
      "flushToAmo(address,uint256)": {
        "params": {
          "amount": "The amount to flush.",
          "underlyingToken": "The underlying token to flush."
        }
      },
      "getAvailableFlow(address)": {
        "params": {
          "underlyingToken": "The underlying token to query."
        },
        "returns": {
          "_0": "The available flow."
        }
      },
      "getRoleAdmin(bytes32)": {
        "details": "Returns the admin role that controls `role`. See {grantRole} and {revokeRole}. To change a role's admin, use {_setRoleAdmin}."
      },
      "getTotalCredit()": {
        "returns": {
          "credit": "The total credit."
        }
      },
      "getTotalUnderlyingBuffered(address)": {
        "params": {
          "underlyingToken": "The underlying token to query."
        },
        "returns": {
          "totalBuffered": "The total buffered."
        }
      },
      "getWeight(address,address)": {
        "params": {
          "token": "The weighted token.",
          "weightToken": "The type of weight to query."
        },
        "returns": {
          "weight": "The weight of the token for the given weight type."
        }
      },
      "grantRole(bytes32,address)": {
        "details": "Grants `role` to `account`. If `account` had not been already granted `role`, emits a {RoleGranted} event. Requirements: - the caller must have ``role``'s admin role."
      },
      "hasRole(bytes32,address)": {
        "details": "Returns `true` if `account` has been granted `role`."
      },
      "initialize(address,address)": {
        "details": "Initialize the contract",
        "params": {
          "_admin": "The governing address of the buffer.",
          "_debtToken": "The debt token minted by the Alchemist and accepted by the Transmuter."
        }
      },
      "onERC20Received(address,uint256)": {
        "params": {
          "token": "The token that was transferred.",
          "value": "The amount of the token that was transferred."
        }
      },
      "registerAsset(address,address)": {
        "params": {
          "transmuter": "The transmuter for the underlying-token.",
          "underlyingToken": "The underlying-token being registered."
        }
      },
      "renounceRole(bytes32,address)": {
        "details": "Revokes `role` from the calling account. Roles are often managed via {grantRole} and {revokeRole}: this function's purpose is to provide a mechanism for accounts to lose their privileges if they are compromised (such as when a trusted device is misplaced). If the calling account had been revoked `role`, emits a {RoleRevoked} event. Requirements: - the caller must be `account`."
      },
      "revokeRole(bytes32,address)": {
        "details": "Revokes `role` from `account`. If `account` had been granted `role`, emits a {RoleRevoked} event. Requirements: - the caller must have ``role``'s admin role."
      },
      "setAlchemist(address)": {
        "params": {
          "alchemist": "The new alchemist whose funds we are handling."
        }
      },
      "setAmo(address,address)": {
        "params": {
          "amo": "The address of the underlying token's new amo.",
          "underlyingToken": "The address of the underlying token to set."
        }
      },
      "setDivertToAmo(address,bool)": {
        "params": {
          "divert": "Whether or not to divert underlying token to the amo.",
          "underlyingToken": "The address of the underlying token to set."
        }
      },
      "setFlowRate(address,uint256)": {
        "params": {
          "flowRate": "The new flow rate.",
          "underlyingToken": "The underlying-token getting the flow rate set."
        }
      },
      "setSource(address,bool)": {
        "params": {
          "flag": "The status to set for the target source.",
          "source": "The target source."
        }
      },
      "setTransmuter(address,address)": {
        "params": {
          "newTransmuter": "The new transmuter for the target `underlyingToken`.",
          "underlyingToken": "The target underlying token to update."
        }
      },
      "setWeights(address,address[],uint256[])": {
        "params": {
          "tokens": "The yield-tokens to weight.",
          "weightToken": "The name of the weighting schema.",
          "weights": "The weights of the yield tokens."
        }
      },
      "supportsInterface(bytes4)": {
        "details": "See {IERC165-supportsInterface}."
      },
      "withdraw(address,uint256,address)": {
        "params": {
          "amount": "The amount to withdraw.",
          "recipient": "The account receiving the withdrawn funds.",
          "underlyingToken": "The underlying token to withdraw."
        }
      },
      "withdrawFromAlchemist(address,uint256,uint256)": {
        "params": {
          "minimumAmountOut": "The minimum amount of underlying tokens needed to be recieved as a result of unwrapping the yield tokens.",
          "shares": "The amount of Alchemist shares to withdraw.",
          "yieldToken": "The yield token to withdraw."
        }
      }
    },
    "stateVariables": {
      "amos": {
        "details": "A mapping of addresses to their respective AMOs."
      },
      "divertToAmo": {
        "details": "A mapping of underlying tokens to divert to the AMO."
      },
      "sources": {
        "details": "A mapping of addresses to denote permissioned sources of funds"
      },
      "version": {
        "return": "The version.",
        "returns": {
          "_0": "The version."
        }
      }
    },
    "title": "ITransmuterBuffer",
    "version": 1
  },
  "userdoc": {
    "errors": {
      "ERC20CallFailed(address,bool,bytes)": [
        {
          "notice": "An error used to indicate that a call to an ERC20 contract failed."
        }
      ],
      "IllegalArgument()": [
        {
          "notice": "An error used to indicate that an action could not be completed because of an illegal argument was passed         to the function."
        }
      ],
      "IllegalState()": [
        {
          "notice": "An error used to indicate that an action could not be completed because the contract either already existed         or entered an illegal condition which is not recoverable from."
        }
      ],
      "Unauthorized()": [
        {
          "notice": "An error used to indicate that an action could not be completed because either the `msg.sender` or         `msg.origin` is not authorized."
        }
      ]
    },
    "events": {
      "RefreshStrategies()": {
        "notice": "Emitted when the strategies are refreshed."
      },
      "RegisterAsset(address,address)": {
        "notice": "Emitted when an underlying token is registered."
      },
      "SetAlchemist(address)": {
        "notice": "Emitted when the alchemist is set."
      },
      "SetAmo(address,address)": {
        "notice": "Emitted when the amo is set."
      },
      "SetDivertToAmo(address,bool)": {
        "notice": "Emitted when the the status of diverting to the amo is set for a given underlying token."
      },
      "SetFlowRate(address,uint256)": {
        "notice": "Emitted when an underlying token's flow rate is updated."
      },
      "SetSource(address,bool)": {
        "notice": "Emitted when a source is set."
      },
      "SetTransmuter(address,address)": {
        "notice": "Emitted when a transmuter is updated."
      }
    },
    "kind": "user",
    "methods": {
      "ADMIN()": {
        "notice": "The identifier of the role which maintains other roles."
      },
      "KEEPER()": {
        "notice": "The identifier of the keeper role."
      },
      "_yieldTokens(address,uint256)": {
        "notice": "The yieldTokens of each underlying supported by the Alchemist."
      },
      "alchemist()": {
        "notice": "The alchemist address."
      },
      "burnCredit()": {
        "notice": "Burns available credit in the alchemist."
      },
      "currentExchanged(address)": {
        "notice": "The total amount of an underlying token that has been exchanged into the transmuter, and has not been claimed."
      },
      "debtToken()": {
        "notice": "The debt-token used by the TransmuterBuffer."
      },
      "depositFunds(address,uint256)": {
        "notice": "Deposits local collateral into the alchemist"
      },
      "exchange(address)": {
        "notice": "Exchanges any available flow into the Transmuter. This function is a way for the keeper to force funds to be exchanged into the Transmuter. This function will revert if called by any account that is not a keeper. If there is not enough local balance of `underlyingToken` held by the TransmuterBuffer any additional funds will be withdrawn from the Alchemist by unwrapping `yieldToken`."
      },
      "flowAvailable(address)": {
        "notice": "The amount of flow available per ERC20."
      },
      "flowRate(address)": {
        "notice": "The flowRate for each address."
      },
      "flushToAmo(address,uint256)": {
        "notice": "Flushes funds to the amo."
      },
      "getAvailableFlow(address)": {
        "notice": "Gets the total available flow for the underlying token The total available flow will be the lesser of `flowAvailable[token]` and `getTotalUnderlyingBuffered`."
      },
      "getTotalCredit()": {
        "notice": "Gets the total credit held by the TransmuterBuffer."
      },
      "getTotalUnderlyingBuffered(address)": {
        "notice": "Gets the total amount of underlying token that the TransmuterBuffer controls in the Alchemist."
      },
      "getWeight(address,address)": {
        "notice": "Gets the weight of the given weight type and token"
      },
      "lastFlowrateUpdate(address)": {
        "notice": "The last update timestamp gor the flowRate for each address."
      },
      "onERC20Received(address,uint256)": {
        "notice": "Informs implementors of this interface that an ERC20 token has been transferred."
      },
      "refreshStrategies()": {
        "notice": "Refresh the yield-tokens in the TransmuterBuffer. This requires a call anytime governance adds a new yield token to the alchemist."
      },
      "registerAsset(address,address)": {
        "notice": "Registers an underlying-token. This function reverts if the caller is not the current admin."
      },
      "registeredUnderlyings(uint256)": {
        "notice": "The underlying-tokens registered in the TransmuterBuffer."
      },
      "setAlchemist(address)": {
        "notice": "Set alchemist by admin. This function reverts if the caller is not the current admin."
      },
      "setAmo(address,address)": {
        "notice": "Set the address of the amo for a target underlying token."
      },
      "setDivertToAmo(address,bool)": {
        "notice": "Set whether or not to divert funds to the amo."
      },
      "setFlowRate(address,uint256)": {
        "notice": "Set flow rate of an underlying token. This function reverts if the caller is not the current admin."
      },
      "setSource(address,bool)": {
        "notice": "Set a source of funds."
      },
      "setTransmuter(address,address)": {
        "notice": "Set transmuter by admin. This function reverts if the caller is not the current admin."
      },
      "setWeights(address,address[],uint256[])": {
        "notice": "Sets up a weighting schema."
      },
      "transmuter(address)": {
        "notice": "The public transmuter address for each address."
      },
      "version()": {
        "notice": "Gets the current version."
      },
      "weightings(address)": {
        "notice": "A mapping of weighting schemas to be used in actions taken on the Alchemist (burn, deposit)."
      },
      "withdraw(address,uint256,address)": {
        "notice": "Withdraws collateral from the alchemist This function reverts if: - The caller is not the transmuter. - There is not enough flow available to fulfill the request. - There is not enough underlying collateral in the alchemist controlled by the buffer to fulfil the request."
      },
      "withdrawFromAlchemist(address,uint256,uint256)": {
        "notice": "Withdraws collateral from the alchemist"
      }
    },
    "notice": "An interface contract to buffer funds between the Alchemist and the Transmuter",
    "version": 1
  },
  "storageLayout": {
    "storage": [
      {
        "astId": 2805,
        "contract": "contracts/TransmuterBuffer.sol:TransmuterBuffer",
        "label": "_roles",
        "offset": 0,
        "slot": "0",
        "type": "t_mapping(t_bytes32,t_struct(RoleData)2800_storage)"
      },
      {
        "astId": 532,
        "contract": "contracts/TransmuterBuffer.sol:TransmuterBuffer",
        "label": "_initialized",
        "offset": 0,
        "slot": "1",
        "type": "t_bool"
      },
      {
        "astId": 535,
        "contract": "contracts/TransmuterBuffer.sol:TransmuterBuffer",
        "label": "_initializing",
        "offset": 1,
        "slot": "1",
        "type": "t_bool"
      },
      {
        "astId": 17175,
        "contract": "contracts/TransmuterBuffer.sol:TransmuterBuffer",
        "label": "alchemist",
        "offset": 2,
        "slot": "1",
        "type": "t_address"
      },
      {
        "astId": 17180,
        "contract": "contracts/TransmuterBuffer.sol:TransmuterBuffer",
        "label": "transmuter",
        "offset": 0,
        "slot": "2",
        "type": "t_mapping(t_address,t_address)"
      },
      {
        "astId": 17185,
        "contract": "contracts/TransmuterBuffer.sol:TransmuterBuffer",
        "label": "flowRate",
        "offset": 0,
        "slot": "3",
        "type": "t_mapping(t_address,t_uint256)"
      },
      {
        "astId": 17190,
        "contract": "contracts/TransmuterBuffer.sol:TransmuterBuffer",
        "label": "lastFlowrateUpdate",
        "offset": 0,
        "slot": "4",
        "type": "t_mapping(t_address,t_uint256)"
      },
      {
        "astId": 17195,
        "contract": "contracts/TransmuterBuffer.sol:TransmuterBuffer",
        "label": "flowAvailable",
        "offset": 0,
        "slot": "5",
        "type": "t_mapping(t_address,t_uint256)"
      },
      {
        "astId": 17201,
        "contract": "contracts/TransmuterBuffer.sol:TransmuterBuffer",
        "label": "_yieldTokens",
        "offset": 0,
        "slot": "6",
        "type": "t_mapping(t_address,t_array(t_address)dyn_storage)"
      },
      {
        "astId": 17206,
        "contract": "contracts/TransmuterBuffer.sol:TransmuterBuffer",
        "label": "currentExchanged",
        "offset": 0,
        "slot": "7",
        "type": "t_mapping(t_address,t_uint256)"
      },
      {
        "astId": 17210,
        "contract": "contracts/TransmuterBuffer.sol:TransmuterBuffer",
        "label": "registeredUnderlyings",
        "offset": 0,
        "slot": "8",
        "type": "t_array(t_address)dyn_storage"
      },
      {
        "astId": 17213,
        "contract": "contracts/TransmuterBuffer.sol:TransmuterBuffer",
        "label": "debtToken",
        "offset": 0,
        "slot": "9",
        "type": "t_address"
      },
      {
        "astId": 17219,
        "contract": "contracts/TransmuterBuffer.sol:TransmuterBuffer",
        "label": "weightings",
        "offset": 0,
        "slot": "10",
        "type": "t_mapping(t_address,t_struct(Weighting)24596_storage)"
      },
      {
        "astId": 17224,
        "contract": "contracts/TransmuterBuffer.sol:TransmuterBuffer",
        "label": "sources",
        "offset": 0,
        "slot": "11",
        "type": "t_mapping(t_address,t_bool)"
      },
      {
        "astId": 17229,
        "contract": "contracts/TransmuterBuffer.sol:TransmuterBuffer",
        "label": "amos",
        "offset": 0,
        "slot": "12",
        "type": "t_mapping(t_address,t_address)"
      },
      {
        "astId": 17234,
        "contract": "contracts/TransmuterBuffer.sol:TransmuterBuffer",
        "label": "divertToAmo",
        "offset": 0,
        "slot": "13",
        "type": "t_mapping(t_address,t_bool)"
      }
    ],
    "types": {
      "t_address": {
        "encoding": "inplace",
        "label": "address",
        "numberOfBytes": "20"
      },
      "t_array(t_address)dyn_storage": {
        "base": "t_address",
        "encoding": "dynamic_array",
        "label": "address[]",
        "numberOfBytes": "32"
      },
      "t_bool": {
        "encoding": "inplace",
        "label": "bool",
        "numberOfBytes": "1"
      },
      "t_bytes32": {
        "encoding": "inplace",
        "label": "bytes32",
        "numberOfBytes": "32"
      },
      "t_mapping(t_address,t_address)": {
        "encoding": "mapping",
        "key": "t_address",
        "label": "mapping(address => address)",
        "numberOfBytes": "32",
        "value": "t_address"
      },
      "t_mapping(t_address,t_array(t_address)dyn_storage)": {
        "encoding": "mapping",
        "key": "t_address",
        "label": "mapping(address => address[])",
        "numberOfBytes": "32",
        "value": "t_array(t_address)dyn_storage"
      },
      "t_mapping(t_address,t_bool)": {
        "encoding": "mapping",
        "key": "t_address",
        "label": "mapping(address => bool)",
        "numberOfBytes": "32",
        "value": "t_bool"
      },
      "t_mapping(t_address,t_struct(Weighting)24596_storage)": {
        "encoding": "mapping",
        "key": "t_address",
        "label": "mapping(address => struct ITransmuterBuffer.Weighting)",
        "numberOfBytes": "32",
        "value": "t_struct(Weighting)24596_storage"
      },
      "t_mapping(t_address,t_uint256)": {
        "encoding": "mapping",
        "key": "t_address",
        "label": "mapping(address => uint256)",
        "numberOfBytes": "32",
        "value": "t_uint256"
      },
      "t_mapping(t_bytes32,t_struct(RoleData)2800_storage)": {
        "encoding": "mapping",
        "key": "t_bytes32",
        "label": "mapping(bytes32 => struct AccessControl.RoleData)",
        "numberOfBytes": "32",
        "value": "t_struct(RoleData)2800_storage"
      },
      "t_struct(RoleData)2800_storage": {
        "encoding": "inplace",
        "label": "struct AccessControl.RoleData",
        "members": [
          {
            "astId": 2797,
            "contract": "contracts/TransmuterBuffer.sol:TransmuterBuffer",
            "label": "members",
            "offset": 0,
            "slot": "0",
            "type": "t_mapping(t_address,t_bool)"
          },
          {
            "astId": 2799,
            "contract": "contracts/TransmuterBuffer.sol:TransmuterBuffer",
            "label": "adminRole",
            "offset": 0,
            "slot": "1",
            "type": "t_bytes32"
          }
        ],
        "numberOfBytes": "64"
      },
      "t_struct(Weighting)24596_storage": {
        "encoding": "inplace",
        "label": "struct ITransmuterBuffer.Weighting",
        "members": [
          {
            "astId": 24590,
            "contract": "contracts/TransmuterBuffer.sol:TransmuterBuffer",
            "label": "weights",
            "offset": 0,
            "slot": "0",
            "type": "t_mapping(t_address,t_uint256)"
          },
          {
            "astId": 24593,
            "contract": "contracts/TransmuterBuffer.sol:TransmuterBuffer",
            "label": "tokens",
            "offset": 0,
            "slot": "1",
            "type": "t_array(t_address)dyn_storage"
          },
          {
            "astId": 24595,
            "contract": "contracts/TransmuterBuffer.sol:TransmuterBuffer",
            "label": "totalWeight",
            "offset": 0,
            "slot": "2",
            "type": "t_uint256"
          }
        ],
        "numberOfBytes": "96"
      },
      "t_uint256": {
        "encoding": "inplace",
        "label": "uint256",
        "numberOfBytes": "32"
      }
    }
  }
}