{
  "address": "0x5131a4215EF0840053cbf0eA4C99952319B9726f",
  "abi": [
    {
      "inputs": [
        {
          "internalType": "address",
          "name": "_cToken",
          "type": "address"
        },
        {
          "internalType": "address",
          "name": "_underlyingToken",
          "type": "address"
        }
      ],
      "stateMutability": "nonpayable",
      "type": "constructor"
    },
    {
      "inputs": [
        {
          "internalType": "address",
          "name": "target",
          "type": "address"
        },
        {
          "internalType": "bool",
          "name": "success",
          "type": "bool"
        },
        {
          "internalType": "bytes",
          "name": "data",
          "type": "bytes"
        }
      ],
      "name": "ERC20CallFailed",
      "type": "error"
    },
    {
      "inputs": [],
      "name": "IllegalState",
      "type": "error"
    },
    {
      "inputs": [],
      "name": "price",
      "outputs": [
        {
          "internalType": "uint256",
          "name": "",
          "type": "uint256"
        }
      ],
      "stateMutability": "view",
      "type": "function"
    },
    {
      "inputs": [],
      "name": "token",
      "outputs": [
        {
          "internalType": "address",
          "name": "",
          "type": "address"
        }
      ],
      "stateMutability": "view",
      "type": "function"
    },
    {
      "inputs": [],
      "name": "underlyingToken",
      "outputs": [
        {
          "internalType": "address",
          "name": "",
          "type": "address"
        }
      ],
      "stateMutability": "view",
      "type": "function"
    },
    {
      "inputs": [
        {
          "internalType": "uint256",
          "name": "amount",
          "type": "uint256"
        },
        {
          "internalType": "address",
          "name": "recipient",
          "type": "address"
        }
      ],
      "name": "unwrap",
      "outputs": [
        {
          "internalType": "uint256",
          "name": "",
          "type": "uint256"
        }
      ],
      "stateMutability": "nonpayable",
      "type": "function"
    },
    {
      "inputs": [],
      "name": "version",
      "outputs": [
        {
          "internalType": "string",
          "name": "",
          "type": "string"
        }
      ],
      "stateMutability": "view",
      "type": "function"
    },
    {
      "inputs": [
        {
          "internalType": "uint256",
          "name": "amount",
          "type": "uint256"
        },
        {
          "internalType": "address",
          "name": "recipient",
          "type": "address"
        }
      ],
      "name": "wrap",
      "outputs": [
        {
          "internalType": "uint256",
          "name": "",
          "type": "uint256"
        }
      ],
      "stateMutability": "nonpayable",
      "type": "function"
    }
  ],
  "transactionHash": "0xffaeea4906b54d1437a09f902091da381bfb7536a34cc29b77a36edebe8e3324",
  "args": [
    "0xFc5FA288c9A409Fd7BF5B5b858e09F1cAcEB7d68",
    "0x8e29E74C488C43B591d0b9c2BcEFD446A393A49a"
  ],
  "solcInputHash": "dac29ad941abae12286cde9e19022bbf",
  "bytecode": "0x60c060405234801561001057600080fd5b50604051610b59380380610b5983398101604081905261002f91610062565b6001600160a01b039182166080521660a052610095565b80516001600160a01b038116811461005d57600080fd5b919050565b6000806040838503121561007557600080fd5b61007e83610046565b915061008c60208401610046565b90509250929050565b60805160a051610a376101226000396000818160920152818161014601528181610172015281816103460152818161042f015261049201526000818161011d01528181610193015281816101bf015281816101fd0152818161027a015281816102b4015281816102ea01528181610318015281816103840152818161040101526104cd0152610a376000f3fe608060405234801561001057600080fd5b50600436106100625760003560e01c806313bac820146100675780632495a5991461008d57806354fd4d50146100cc5780637647691d146100fd578063a035b1fe14610110578063fc0c546a14610118575b600080fd5b61007a610075366004610885565b61013f565b6040519081526020015b60405180910390f35b6100b47f000000000000000000000000000000000000000000000000000000000000000081565b6040516001600160a01b039091168152602001610084565b6100f0604051806040016040528060058152602001640322e312e360dc1b81525081565b604051610084919061091d565b61007a61010b366004610885565b6102e3565b61007a6104c3565b6100b47f000000000000000000000000000000000000000000000000000000000000000081565b600061016d7f000000000000000000000000000000000000000000000000000000000000000033308661055c565b6101b87f00000000000000000000000000000000000000000000000000000000000000007f000000000000000000000000000000000000000000000000000000000000000085610665565b60006101e47f00000000000000000000000000000000000000000000000000000000000000003061076d565b60405163140e25ad60e31b8152600481018690529091507f00000000000000000000000000000000000000000000000000000000000000006001600160a01b03169063a0712d68906024016020604051808303816000875af115801561024e573d6000803e3d6000fd5b505050506040513d601f19601f820116820180604052508101906102729190610937565b50600061029f7f00000000000000000000000000000000000000000000000000000000000000003061076d565b905060006102ad8383610950565b90506102da7f00000000000000000000000000000000000000000000000000000000000000008683610852565b95945050505050565b60006103117f000000000000000000000000000000000000000000000000000000000000000033308661055c565b600061033d7f00000000000000000000000000000000000000000000000000000000000000003061076d565b9050600061036b7f00000000000000000000000000000000000000000000000000000000000000003061076d565b60405163db006a7560e01b8152600481018790529091507f00000000000000000000000000000000000000000000000000000000000000006001600160a01b03169063db006a75906024016020604051808303816000875af11580156103d5573d6000803e3d6000fd5b505050506040513d601f19601f820116820180604052508101906103f99190610937565b5060006104267f00000000000000000000000000000000000000000000000000000000000000003061076d565b905060006104547f00000000000000000000000000000000000000000000000000000000000000003061076d565b9050866104618386610950565b1461047f57604051634a613c4160e01b815260040160405180910390fd5b600061048b8483610950565b90506104b87f00000000000000000000000000000000000000000000000000000000000000008883610852565b979650505050505050565b60006402540be4007f00000000000000000000000000000000000000000000000000000000000000006001600160a01b031663182df0f56040518163ffffffff1660e01b8152600401602060405180830381865afa158015610529573d6000803e3d6000fd5b505050506040513d601f19601f8201168201806040525081019061054d9190610937565b6105579190610975565b905090565b604080516001600160a01b0385811660248301528481166044830152606480830185905283518084039091018152608490920183526020820180516001600160e01b03166323b872dd60e01b17905291516000928392908816916105c09190610997565b6000604051808303816000865af19150503d80600081146105fd576040519150601f19603f3d011682016040523d82523d6000602084013e610602565b606091505b5091509150811580610630575080511580159061063057508080602001905181019061062e91906109b3565b155b1561065d5785828260405163e7e40b5b60e01b8152600401610654939291906109d5565b60405180910390fd5b505050505050565b6040516001600160a01b03838116602483015260448201839052600091829186169063095ea7b360e01b906064015b60408051601f198184030181529181526020820180516001600160e01b03166001600160e01b03199094169390931790925290516106d29190610997565b6000604051808303816000865af19150503d806000811461070f576040519150601f19603f3d011682016040523d82523d6000602084013e610714565b606091505b5091509150811580610742575080511580159061074257508080602001905181019061074091906109b3565b155b156107665784828260405163e7e40b5b60e01b8152600401610654939291906109d5565b5050505050565b604080516001600160a01b0383811660248084019190915283518084039091018152604490920183526020820180516001600160e01b03166370a0823160e01b179052915160009283928392918716916107c79190610997565b600060405180830381855afa9150503d8060008114610802576040519150601f19603f3d011682016040523d82523d6000602084013e610807565b606091505b509150915081158061081a575060208151105b1561083e5784828260405163e7e40b5b60e01b8152600401610654939291906109d5565b808060200190518101906102da9190610937565b6040516001600160a01b03838116602483015260448201839052600091829186169063a9059cbb60e01b90606401610694565b6000806040838503121561089857600080fd5b8235915060208301356001600160a01b03811681146108b657600080fd5b809150509250929050565b60005b838110156108dc5781810151838201526020016108c4565b838111156108eb576000848401525b50505050565b600081518084526109098160208601602086016108c1565b601f01601f19169290920160200192915050565b60208152600061093060208301846108f1565b9392505050565b60006020828403121561094957600080fd5b5051919050565b60008282101561097057634e487b7160e01b600052601160045260246000fd5b500390565b60008261099257634e487b7160e01b600052601260045260246000fd5b500490565b600082516109a98184602087016108c1565b9190910192915050565b6000602082840312156109c557600080fd5b8151801515811461093057600080fd5b6001600160a01b038416815282151560208201526060604082018190526000906102da908301846108f156fea2646970667358221220da65fb21a2dded4318cb10081e989334d885fd07b78aa6d1d818686b85c9785964736f6c634300080b0033",
  "devdoc": {
    "author": "Alchemix Finance",
    "errors": {
      "ERC20CallFailed(address,bool,bytes)": [
        {
          "params": {
            "data": "The resulting data from the call. This is error data when the call was not a success. Otherwise,                this is malformed data when the call was a success.",
            "success": "If the call to the token was a success.",
            "target": "The target address."
          }
        }
      ]
    },
    "kind": "dev",
    "methods": {
      "price()": {
        "returns": {
          "_0": "The price."
        }
      },
      "unwrap(uint256,address)": {
        "params": {
          "amount": "The amount of yield-tokens to redeem.",
          "recipient": "The recipient of the resulting underlying-tokens."
        },
        "returns": {
          "_0": "The amount of underlying tokens unwrapped to `recipient`."
        }
      },
      "wrap(uint256,address)": {
        "params": {
          "amount": "The amount of the underlying token to wrap.",
          "recipient": "The address which will receive the yield tokens."
        },
        "returns": {
          "_0": "The amount of yield tokens minted to `recipient`."
        }
      }
    },
    "stateVariables": {
      "token": {
        "return": "The address of the yield token.",
        "returns": {
          "_0": "The address of the yield token."
        }
      },
      "underlyingToken": {
        "return": "The address of the underlying token.",
        "returns": {
          "_0": "The address of the underlying token."
        }
      },
      "version": {
        "return": "The version.",
        "returns": {
          "_0": "The version."
        }
      }
    },
    "title": "CTokenAdapter",
    "version": 1
  },
  "userdoc": {
    "errors": {
      "ERC20CallFailed(address,bool,bytes)": [
        {
          "notice": "An error used to indicate that a call to an ERC20 contract failed."
        }
      ],
      "IllegalState()": [
        {
          "notice": "An error used to indicate that an action could not be completed because the contract either already existed         or entered an illegal condition which is not recoverable from."
        }
      ]
    },
    "kind": "user",
    "methods": {
      "price()": {
        "notice": "Gets the number of underlying tokens that a single whole yield token is redeemable for."
      },
      "token()": {
        "notice": "Gets the address of the yield token that this adapter supports."
      },
      "underlyingToken()": {
        "notice": "Gets the address of the underlying token that the yield token wraps."
      },
      "unwrap(uint256,address)": {
        "notice": "Unwraps `amount` yield tokens into the underlying token."
      },
      "version()": {
        "notice": "Gets the current version."
      },
      "wrap(uint256,address)": {
        "notice": "Wraps `amount` underlying tokens into the yield token."
      }
    },
    "version": 1
  },
  "storageLayout": {
    "storage": [],
    "types": null
  }
}