{
  "address": "0xe07B5Ac51371d1b795a839555B90014e55476C20",
  "abi": [
    {
      "inputs": [
        {
          "internalType": "address",
          "name": "underlyingToken",
          "type": "address"
        },
        {
          "internalType": "string",
          "name": "name",
          "type": "string"
        },
        {
          "internalType": "string",
          "name": "symbol",
          "type": "string"
        },
        {
          "internalType": "uint8",
          "name": "decimals",
          "type": "uint8"
        }
      ],
      "stateMutability": "nonpayable",
      "type": "constructor"
    },
    {
      "inputs": [
        {
          "internalType": "address",
          "name": "target",
          "type": "address"
        },
        {
          "internalType": "bool",
          "name": "success",
          "type": "bool"
        },
        {
          "internalType": "bytes",
          "name": "data",
          "type": "bytes"
        }
      ],
      "name": "ERC20CallFailed",
      "type": "error"
    },
    {
      "anonymous": false,
      "inputs": [
        {
          "indexed": true,
          "internalType": "address",
          "name": "owner",
          "type": "address"
        },
        {
          "indexed": true,
          "internalType": "address",
          "name": "spender",
          "type": "address"
        },
        {
          "indexed": false,
          "internalType": "uint256",
          "name": "value",
          "type": "uint256"
        }
      ],
      "name": "Approval",
      "type": "event"
    },
    {
      "anonymous": false,
      "inputs": [
        {
          "indexed": true,
          "internalType": "address",
          "name": "from",
          "type": "address"
        },
        {
          "indexed": true,
          "internalType": "address",
          "name": "to",
          "type": "address"
        },
        {
          "indexed": false,
          "internalType": "uint256",
          "name": "value",
          "type": "uint256"
        }
      ],
      "name": "Transfer",
      "type": "event"
    },
    {
      "inputs": [],
      "name": "PERCENT_RESOLUTION",
      "outputs": [
        {
          "internalType": "uint256",
          "name": "",
          "type": "uint256"
        }
      ],
      "stateMutability": "view",
      "type": "function"
    },
    {
      "inputs": [],
      "name": "_decimals",
      "outputs": [
        {
          "internalType": "uint8",
          "name": "",
          "type": "uint8"
        }
      ],
      "stateMutability": "view",
      "type": "function"
    },
    {
      "inputs": [
        {
          "internalType": "address",
          "name": "owner",
          "type": "address"
        },
        {
          "internalType": "address",
          "name": "spender",
          "type": "address"
        }
      ],
      "name": "allowance",
      "outputs": [
        {
          "internalType": "uint256",
          "name": "",
          "type": "uint256"
        }
      ],
      "stateMutability": "view",
      "type": "function"
    },
    {
      "inputs": [
        {
          "internalType": "address",
          "name": "spender",
          "type": "address"
        },
        {
          "internalType": "uint256",
          "name": "amount",
          "type": "uint256"
        }
      ],
      "name": "approve",
      "outputs": [
        {
          "internalType": "bool",
          "name": "",
          "type": "bool"
        }
      ],
      "stateMutability": "nonpayable",
      "type": "function"
    },
    {
      "inputs": [],
      "name": "balance",
      "outputs": [
        {
          "internalType": "uint256",
          "name": "",
          "type": "uint256"
        }
      ],
      "stateMutability": "view",
      "type": "function"
    },
    {
      "inputs": [
        {
          "internalType": "address",
          "name": "account",
          "type": "address"
        }
      ],
      "name": "balanceOf",
      "outputs": [
        {
          "internalType": "uint256",
          "name": "",
          "type": "uint256"
        }
      ],
      "stateMutability": "view",
      "type": "function"
    },
    {
      "inputs": [],
      "name": "decimals",
      "outputs": [
        {
          "internalType": "uint8",
          "name": "",
          "type": "uint8"
        }
      ],
      "stateMutability": "view",
      "type": "function"
    },
    {
      "inputs": [
        {
          "internalType": "address",
          "name": "spender",
          "type": "address"
        },
        {
          "internalType": "uint256",
          "name": "subtractedValue",
          "type": "uint256"
        }
      ],
      "name": "decreaseAllowance",
      "outputs": [
        {
          "internalType": "bool",
          "name": "",
          "type": "bool"
        }
      ],
      "stateMutability": "nonpayable",
      "type": "function"
    },
    {
      "inputs": [],
      "name": "depositLimit",
      "outputs": [
        {
          "internalType": "uint256",
          "name": "",
          "type": "uint256"
        }
      ],
      "stateMutability": "view",
      "type": "function"
    },
    {
      "inputs": [],
      "name": "exchangeRateCurrent",
      "outputs": [
        {
          "internalType": "uint256",
          "name": "",
          "type": "uint256"
        }
      ],
      "stateMutability": "view",
      "type": "function"
    },
    {
      "inputs": [],
      "name": "exchangeRateStored",
      "outputs": [
        {
          "internalType": "uint256",
          "name": "",
          "type": "uint256"
        }
      ],
      "stateMutability": "view",
      "type": "function"
    },
    {
      "inputs": [],
      "name": "forcedSlippage",
      "outputs": [
        {
          "internalType": "uint256",
          "name": "",
          "type": "uint256"
        }
      ],
      "stateMutability": "view",
      "type": "function"
    },
    {
      "inputs": [
        {
          "internalType": "address",
          "name": "spender",
          "type": "address"
        },
        {
          "internalType": "uint256",
          "name": "addedValue",
          "type": "uint256"
        }
      ],
      "name": "increaseAllowance",
      "outputs": [
        {
          "internalType": "bool",
          "name": "",
          "type": "bool"
        }
      ],
      "stateMutability": "nonpayable",
      "type": "function"
    },
    {
      "inputs": [
        {
          "internalType": "uint256",
          "name": "_amount",
          "type": "uint256"
        }
      ],
      "name": "mint",
      "outputs": [
        {
          "internalType": "uint256",
          "name": "",
          "type": "uint256"
        }
      ],
      "stateMutability": "nonpayable",
      "type": "function"
    },
    {
      "inputs": [],
      "name": "name",
      "outputs": [
        {
          "internalType": "string",
          "name": "",
          "type": "string"
        }
      ],
      "stateMutability": "view",
      "type": "function"
    },
    {
      "inputs": [
        {
          "internalType": "uint256",
          "name": "_amount",
          "type": "uint256"
        }
      ],
      "name": "redeem",
      "outputs": [
        {
          "internalType": "uint256",
          "name": "",
          "type": "uint256"
        }
      ],
      "stateMutability": "nonpayable",
      "type": "function"
    },
    {
      "inputs": [],
      "name": "symbol",
      "outputs": [
        {
          "internalType": "string",
          "name": "",
          "type": "string"
        }
      ],
      "stateMutability": "view",
      "type": "function"
    },
    {
      "inputs": [],
      "name": "token",
      "outputs": [
        {
          "internalType": "address",
          "name": "",
          "type": "address"
        }
      ],
      "stateMutability": "view",
      "type": "function"
    },
    {
      "inputs": [],
      "name": "totalSupply",
      "outputs": [
        {
          "internalType": "uint256",
          "name": "",
          "type": "uint256"
        }
      ],
      "stateMutability": "view",
      "type": "function"
    },
    {
      "inputs": [
        {
          "internalType": "address",
          "name": "to",
          "type": "address"
        },
        {
          "internalType": "uint256",
          "name": "amount",
          "type": "uint256"
        }
      ],
      "name": "transfer",
      "outputs": [
        {
          "internalType": "bool",
          "name": "",
          "type": "bool"
        }
      ],
      "stateMutability": "nonpayable",
      "type": "function"
    },
    {
      "inputs": [
        {
          "internalType": "address",
          "name": "from",
          "type": "address"
        },
        {
          "internalType": "address",
          "name": "to",
          "type": "address"
        },
        {
          "internalType": "uint256",
          "name": "amount",
          "type": "uint256"
        }
      ],
      "name": "transferFrom",
      "outputs": [
        {
          "internalType": "bool",
          "name": "",
          "type": "bool"
        }
      ],
      "stateMutability": "nonpayable",
      "type": "function"
    }
  ],
  "transactionHash": "0x83be9c1182985b0907dcd44a0e234b8fcd0545e435a393be236da5b33027f02a",
  "args": [
    "0x38254abE9a5F716D1A30F3c211ABe7b5243667e5",
    "Collateral USDC",
    "cUSDC",
    8
  ],
  "solcInputHash": "dac29ad941abae12286cde9e19022bbf",
  "bytecode": "0x608060405260006007553480156200001657600080fd5b506040516200166038038062001660833981016040819052620000399162000229565b8383838181816003908051906020019062000056929190620000b6565b5080516200006c906004906020840190620000b6565b5050600580546001600160a01b0319166001600160a01b0395909516949094179093555050600019600655506008805460ff191660ff92909216919091179055506200030a915050565b828054620000c490620002cd565b90600052602060002090601f016020900481019282620000e8576000855562000133565b82601f106200010357805160ff191683800117855562000133565b8280016001018555821562000133579182015b828111156200013357825182559160200191906001019062000116565b506200014192915062000145565b5090565b5b8082111562000141576000815560010162000146565b634e487b7160e01b600052604160045260246000fd5b600082601f8301126200018457600080fd5b81516001600160401b0380821115620001a157620001a16200015c565b604051601f8301601f19908116603f01168101908282118183101715620001cc57620001cc6200015c565b81604052838152602092508683858801011115620001e957600080fd5b600091505b838210156200020d5785820183015181830184015290820190620001ee565b838211156200021f5760008385830101525b9695505050505050565b600080600080608085870312156200024057600080fd5b84516001600160a01b03811681146200025857600080fd5b60208601519094506001600160401b03808211156200027657600080fd5b620002848883890162000172565b945060408701519150808211156200029b57600080fd5b50620002aa8782880162000172565b925050606085015160ff81168114620002c257600080fd5b939692955090935050565b600181811c90821680620002e257607f821691505b602082108114156200030457634e487b7160e01b600052602260045260246000fd5b50919050565b611346806200031a6000396000f3fe608060405234801561001057600080fd5b50600436106101375760003560e01c80638a98c8c6116100b8578063b69ef8a81161007c578063b69ef8a81461025f578063bd6d894d1461018f578063db006a7514610267578063dd62ed3e1461027a578063ecf708581461028d578063fc0c546a1461029657600080fd5b80638a98c8c61461021557806395d89b411461021e578063a0712d6814610226578063a457c2d714610239578063a9059cbb1461024c57600080fd5b8063313ce567116100ff578063313ce567146101aa57806332424aa3146101c357806339509351146101d057806345f867b3146101e357806370a08231146101ec57600080fd5b806306fdde031461013c578063095ea7b31461015a57806318160ddd1461017d578063182df0f51461018f57806323b872dd14610197575b600080fd5b6101446102c1565b60405161015191906110c7565b60405180910390f35b61016d6101683660046110f6565b610353565b6040519015158152602001610151565b6002545b604051908152602001610151565b61018161036b565b61016d6101a5366004611120565b6103b3565b60085460ff165b60405160ff9091168152602001610151565b6008546101b19060ff1681565b61016d6101de3660046110f6565b6103d7565b61018161271081565b6101816101fa36600461115c565b6001600160a01b031660009081526020819052604090205490565b61018160075481565b6101446103f9565b610181610234366004611177565b610408565b61016d6102473660046110f6565b6106aa565b61016d61025a3660046110f6565b610725565b610181610733565b610181610275366004611177565b6107a5565b610181610288366004611190565b6108a3565b61018160065481565b6005546102a9906001600160a01b031681565b6040516001600160a01b039091168152602001610151565b6060600380546102d0906111c3565b80601f01602080910402602001604051908101604052809291908181526020018280546102fc906111c3565b80156103495780601f1061031e57610100808354040283529160200191610349565b820191906000526020600020905b81548152906001019060200180831161032c57829003601f168201915b5050505050905090565b6000336103618185856108ce565b5060019392505050565b60008061037760025490565b90508061038657600091505090565b600254610391610733565b6103a390670de0b6b3a7640000611214565b6103ad9190611233565b91505090565b6000336103c18582856109f3565b6103cc858585610a6d565b506001949350505050565b6000336103618185856103ea83836108a3565b6103f49190611255565b6108ce565b6060600480546102d0906111c3565b600080610413610733565b6005546040516370a0823160e01b81523060048201529192506000916001600160a01b03909116906370a0823190602401602060405180830381865afa158015610461573d6000803e3d6000fd5b505050506040513d601f19601f82011682018060405250810190610485919061126d565b90506000198414156105215761051a61049c610733565b6006546104a99190611286565b6005546040516370a0823160e01b81523360048201526001600160a01b03909116906370a0823190602401602060405180830381865afa1580156104f1573d6000803e3d6000fd5b505050506040513d601f19601f82011682018060405250810190610515919061126d565b610c3b565b9350610583565b6006548461052d610733565b6105379190611255565b11156105835760405162461bcd60e51b815260206004820152601660248201527519195c1bdcda5d081b1a5b5a5d08189c995858da195960521b60448201526064015b60405180910390fd5b600084116105cc5760405162461bcd60e51b81526020600482015260166024820152756d757374206465706f73697420736f6d657468696e6760501b604482015260640161057a565b6005546105e4906001600160a01b0316333087610c53565b6005546040516370a0823160e01b81523060048201526000916001600160a01b0316906370a0823190602401602060405180830381865afa15801561062d573d6000803e3d6000fd5b505050506040513d601f19601f82011682018060405250810190610651919061126d565b905061065d8282611286565b9450600061066a60025490565b610675575084610696565b8361067f60025490565b6106899088611214565b6106939190611233565b90505b6106a03382610d53565b5093949350505050565b600033816106b882866108a3565b9050838110156107185760405162461bcd60e51b815260206004820152602560248201527f45524332303a2064656372656173656420616c6c6f77616e63652062656c6f77604482015264207a65726f60d81b606482015260840161057a565b6103cc82868684036108ce565b600033610361818585610a6d565b6005546040516370a0823160e01b81523060048201526000916001600160a01b0316906370a0823190602401602060405180830381865afa15801561077c573d6000803e3d6000fd5b505050506040513d601f19601f820116820180604052508101906107a0919061126d565b905090565b60006000198214156107c4573360009081526020819052604090205491505b60006107cf60025490565b836107d8610733565b6107e29190611214565b6107ec9190611233565b90506107f83384610e32565b60006127106007548361080b9190611214565b6108159190611233565b61081f9083611286565b905061271061082e8184611214565b6108389190611233565b6108429083611286565b8110156108855760405162461bcd60e51b8152602060048201526011602482015270746f6f206d75636820736c69707061676560781b604482015260640161057a565b60055461089c906001600160a01b03163384610f78565b5092915050565b6001600160a01b03918216600090815260016020908152604080832093909416825291909152205490565b6001600160a01b0383166109305760405162461bcd60e51b8152602060048201526024808201527f45524332303a20617070726f76652066726f6d20746865207a65726f206164646044820152637265737360e01b606482015260840161057a565b6001600160a01b0382166109915760405162461bcd60e51b815260206004820152602260248201527f45524332303a20617070726f766520746f20746865207a65726f206164647265604482015261737360f01b606482015260840161057a565b6001600160a01b0383811660008181526001602090815260408083209487168084529482529182902085905590518481527f8c5be1e5ebec7d5bd14f71427d1e84f3dd0314c0f7b2291e5b200ac8c7c3b92591015b60405180910390a3505050565b60006109ff84846108a3565b90506000198114610a675781811015610a5a5760405162461bcd60e51b815260206004820152601d60248201527f45524332303a20696e73756666696369656e7420616c6c6f77616e6365000000604482015260640161057a565b610a6784848484036108ce565b50505050565b6001600160a01b038316610ad15760405162461bcd60e51b815260206004820152602560248201527f45524332303a207472616e736665722066726f6d20746865207a65726f206164604482015264647265737360d81b606482015260840161057a565b6001600160a01b038216610b335760405162461bcd60e51b815260206004820152602360248201527f45524332303a207472616e7366657220746f20746865207a65726f206164647260448201526265737360e81b606482015260840161057a565b6001600160a01b03831660009081526020819052604090205481811015610bab5760405162461bcd60e51b815260206004820152602660248201527f45524332303a207472616e7366657220616d6f756e7420657863656564732062604482015265616c616e636560d01b606482015260840161057a565b6001600160a01b03808516600090815260208190526040808220858503905591851681529081208054849290610be2908490611255565b92505081905550826001600160a01b0316846001600160a01b03167fddf252ad1be2c89b69c2b068fc378daa952ba7f163c4a11628f55a4df523b3ef84604051610c2e91815260200190565b60405180910390a3610a67565b6000818310610c4a5781610c4c565b825b9392505050565b604080516001600160a01b0385811660248301528481166044830152606480830185905283518084039091018152608490920183526020820180516001600160e01b03166323b872dd60e01b1790529151600092839290881691610cb7919061129d565b6000604051808303816000865af19150503d8060008114610cf4576040519150601f19603f3d011682016040523d82523d6000602084013e610cf9565b606091505b5091509150811580610d275750805115801590610d27575080806020019051810190610d2591906112b9565b155b15610d4b5785828260405163e7e40b5b60e01b815260040161057a939291906112db565b505050505050565b6001600160a01b038216610da95760405162461bcd60e51b815260206004820152601f60248201527f45524332303a206d696e7420746f20746865207a65726f206164647265737300604482015260640161057a565b8060026000828254610dbb9190611255565b90915550506001600160a01b03821660009081526020819052604081208054839290610de8908490611255565b90915550506040518181526001600160a01b038316906000907fddf252ad1be2c89b69c2b068fc378daa952ba7f163c4a11628f55a4df523b3ef9060200160405180910390a35050565b6001600160a01b038216610e925760405162461bcd60e51b815260206004820152602160248201527f45524332303a206275726e2066726f6d20746865207a65726f206164647265736044820152607360f81b606482015260840161057a565b6001600160a01b03821660009081526020819052604090205481811015610f065760405162461bcd60e51b815260206004820152602260248201527f45524332303a206275726e20616d6f756e7420657863656564732062616c616e604482015261636560f01b606482015260840161057a565b6001600160a01b0383166000908152602081905260408120838303905560028054849290610f35908490611286565b90915550506040518281526000906001600160a01b038516907fddf252ad1be2c89b69c2b068fc378daa952ba7f163c4a11628f55a4df523b3ef906020016109e6565b604080516001600160a01b038481166024830152604480830185905283518084039091018152606490920183526020820180516001600160e01b031663a9059cbb60e01b1790529151600092839290871691610fd4919061129d565b6000604051808303816000865af19150503d8060008114611011576040519150601f19603f3d011682016040523d82523d6000602084013e611016565b606091505b5091509150811580611044575080511580159061104457508080602001905181019061104291906112b9565b155b156110685784828260405163e7e40b5b60e01b815260040161057a939291906112db565b5050505050565b60005b8381101561108a578181015183820152602001611072565b83811115610a675750506000910152565b600081518084526110b381602086016020860161106f565b601f01601f19169290920160200192915050565b602081526000610c4c602083018461109b565b80356001600160a01b03811681146110f157600080fd5b919050565b6000806040838503121561110957600080fd5b611112836110da565b946020939093013593505050565b60008060006060848603121561113557600080fd5b61113e846110da565b925061114c602085016110da565b9150604084013590509250925092565b60006020828403121561116e57600080fd5b610c4c826110da565b60006020828403121561118957600080fd5b5035919050565b600080604083850312156111a357600080fd5b6111ac836110da565b91506111ba602084016110da565b90509250929050565b600181811c908216806111d757607f821691505b602082108114156111f857634e487b7160e01b600052602260045260246000fd5b50919050565b634e487b7160e01b600052601160045260246000fd5b600081600019048311821515161561122e5761122e6111fe565b500290565b60008261125057634e487b7160e01b600052601260045260246000fd5b500490565b60008219821115611268576112686111fe565b500190565b60006020828403121561127f57600080fd5b5051919050565b600082821015611298576112986111fe565b500390565b600082516112af81846020870161106f565b9190910192915050565b6000602082840312156112cb57600080fd5b81518015158114610c4c57600080fd5b6001600160a01b038416815282151560208201526060604082018190526000906113079083018461109b565b9594505050505056fea264697066735822122014f8372ffa54cc464fac65cadb6ca3c92f89bca9c55e8be619466a4ef3adc20264736f6c634300080b0033",
  "devdoc": {
    "details": "A mock of an ERC20 token which lets anyone burn and mint tokens.",
    "errors": {
      "ERC20CallFailed(address,bool,bytes)": [
        {
          "params": {
            "data": "The resulting data from the call. This is error data when the call was not a success. Otherwise,                this is malformed data when the call was a success.",
            "success": "If the call to the token was a success.",
            "target": "The target address."
          }
        }
      ]
    },
    "kind": "dev",
    "methods": {
      "allowance(address,address)": {
        "details": "See {IERC20-allowance}."
      },
      "approve(address,uint256)": {
        "details": "See {IERC20-approve}. NOTE: If `amount` is the maximum `uint256`, the allowance is not updated on `transferFrom`. This is semantically equivalent to an infinite approval. Requirements: - `spender` cannot be the zero address."
      },
      "balanceOf(address)": {
        "details": "See {IERC20-balanceOf}."
      },
      "decimals()": {
        "details": "Returns the number of decimals used to get its user representation. For example, if `decimals` equals `2`, a balance of `505` tokens should be displayed to a user as `5.05` (`505 / 10 ** 2`). Tokens usually opt for a value of 18, imitating the relationship between Ether and Wei. This is the value {ERC20} uses, unless this function is overridden; NOTE: This information is only used for _display_ purposes: it in no way affects any of the arithmetic of the contract, including {IERC20-balanceOf} and {IERC20-transfer}."
      },
      "decreaseAllowance(address,uint256)": {
        "details": "Atomically decreases the allowance granted to `spender` by the caller. This is an alternative to {approve} that can be used as a mitigation for problems described in {IERC20-approve}. Emits an {Approval} event indicating the updated allowance. Requirements: - `spender` cannot be the zero address. - `spender` must have allowance for the caller of at least `subtractedValue`."
      },
      "increaseAllowance(address,uint256)": {
        "details": "Atomically increases the allowance granted to `spender` by the caller. This is an alternative to {approve} that can be used as a mitigation for problems described in {IERC20-approve}. Emits an {Approval} event indicating the updated allowance. Requirements: - `spender` cannot be the zero address."
      },
      "name()": {
        "details": "Returns the name of the token."
      },
      "symbol()": {
        "details": "Returns the symbol of the token, usually a shorter version of the name."
      },
      "totalSupply()": {
        "details": "See {IERC20-totalSupply}."
      },
      "transfer(address,uint256)": {
        "details": "See {IERC20-transfer}. Requirements: - `to` cannot be the zero address. - the caller must have a balance of at least `amount`."
      },
      "transferFrom(address,address,uint256)": {
        "details": "See {IERC20-transferFrom}. Emits an {Approval} event indicating the updated allowance. This is not required by the EIP. See the note at the beginning of {ERC20}. NOTE: Does not update the allowance if the current allowance is the maximum `uint256`. Requirements: - `from` and `to` cannot be the zero address. - `from` must have a balance of at least `amount`. - the caller must have allowance for ``from``'s tokens of at least `amount`."
      }
    },
    "title": "ERC20Mock",
    "version": 1
  },
  "userdoc": {
    "errors": {
      "ERC20CallFailed(address,bool,bytes)": [
        {
          "notice": "An error used to indicate that a call to an ERC20 contract failed."
        }
      ]
    },
    "kind": "user",
    "methods": {},
    "version": 1
  },
  "storageLayout": {
    "storage": [
      {
        "astId": 3407,
        "contract": "contracts/adapters/mock/MockYieldToken.sol:MockYieldToken",
        "label": "_balances",
        "offset": 0,
        "slot": "0",
        "type": "t_mapping(t_address,t_uint256)"
      },
      {
        "astId": 3413,
        "contract": "contracts/adapters/mock/MockYieldToken.sol:MockYieldToken",
        "label": "_allowances",
        "offset": 0,
        "slot": "1",
        "type": "t_mapping(t_address,t_mapping(t_address,t_uint256))"
      },
      {
        "astId": 3415,
        "contract": "contracts/adapters/mock/MockYieldToken.sol:MockYieldToken",
        "label": "_totalSupply",
        "offset": 0,
        "slot": "2",
        "type": "t_uint256"
      },
      {
        "astId": 3417,
        "contract": "contracts/adapters/mock/MockYieldToken.sol:MockYieldToken",
        "label": "_name",
        "offset": 0,
        "slot": "3",
        "type": "t_string_storage"
      },
      {
        "astId": 3419,
        "contract": "contracts/adapters/mock/MockYieldToken.sol:MockYieldToken",
        "label": "_symbol",
        "offset": 0,
        "slot": "4",
        "type": "t_string_storage"
      },
      {
        "astId": 20537,
        "contract": "contracts/adapters/mock/MockYieldToken.sol:MockYieldToken",
        "label": "token",
        "offset": 0,
        "slot": "5",
        "type": "t_address"
      },
      {
        "astId": 20539,
        "contract": "contracts/adapters/mock/MockYieldToken.sol:MockYieldToken",
        "label": "depositLimit",
        "offset": 0,
        "slot": "6",
        "type": "t_uint256"
      },
      {
        "astId": 20542,
        "contract": "contracts/adapters/mock/MockYieldToken.sol:MockYieldToken",
        "label": "forcedSlippage",
        "offset": 0,
        "slot": "7",
        "type": "t_uint256"
      },
      {
        "astId": 20950,
        "contract": "contracts/adapters/mock/MockYieldToken.sol:MockYieldToken",
        "label": "_decimals",
        "offset": 0,
        "slot": "8",
        "type": "t_uint8"
      }
    ],
    "types": {
      "t_address": {
        "encoding": "inplace",
        "label": "address",
        "numberOfBytes": "20"
      },
      "t_mapping(t_address,t_mapping(t_address,t_uint256))": {
        "encoding": "mapping",
        "key": "t_address",
        "label": "mapping(address => mapping(address => uint256))",
        "numberOfBytes": "32",
        "value": "t_mapping(t_address,t_uint256)"
      },
      "t_mapping(t_address,t_uint256)": {
        "encoding": "mapping",
        "key": "t_address",
        "label": "mapping(address => uint256)",
        "numberOfBytes": "32",
        "value": "t_uint256"
      },
      "t_string_storage": {
        "encoding": "bytes",
        "label": "string",
        "numberOfBytes": "32"
      },
      "t_uint256": {
        "encoding": "inplace",
        "label": "uint256",
        "numberOfBytes": "32"
      },
      "t_uint8": {
        "encoding": "inplace",
        "label": "uint8",
        "numberOfBytes": "1"
      }
    }
  }
}